:020000040800F2
:1000000018EE0020610200089353000851430008D5
:1000100091530008FD0C000815780008000000004E
:10002000000000000000000000000000A101000826
:10003000450E000800000000FD0100081D6C0008CE
:100040007B0200087B0200087B0200087B0200089C
:100050007B0200087B0200087B0200087B0200088C
:100060007B0200087B0200087B0200087B0200087C
:10007000310D00087B0200087B0200083D0D0008DE
:100080007B020008490D00087B0200087B02000883
:10009000010D00087B0200087B0200087B020008BB
:1000A0007B0200087B0200087B0200087B0200083C
:1000B000DD6C0008E96C0008F56C00087B020008A4
:1000C0007B0200087B0200087B0200087B0200081C
:1000D0007B0200083D74000849740008557400084C
:1000E0007B0200087B0200087B0200087B020008FC
:1000F0007B0200087B0200087B0200087B020008EC
:100100007B0200087B0200087B0200087B020008DB
:10011000A97000087B0200087B020008016D00083E
:10012000550D00087B0200087B0200087B020008D6
:100130007B0200087B0200087B0200087B020008AB
:100140007B0200080D0D00087B0200083D570008E7
:100150007B0200087B020008610D00087B0200089A
:100160007B0200087B0200087B0200087B0200087B
:100170007B0200087B0200087B02000800000000F0
:100180007B0200087B020008DFF810D000F016FCAC
:100190000048004789A30008AFF3008018EE002054
:1001A0002C4B19680868B0E8F04F80F30988BFF35A
:1001B0006F8F4FF0000080F311887047000000003F
:1001C00008480068006880F308884FF0000080F35A
:1001D000148862B661B6BFF34F8FBFF36F8F00DF35
:1001E00000BF00BF08ED00E0DFF80C00016841F43B
:1001F00070010160704700BF88ED00E0EFF30980F7
:10020000BFF36F8F134B1A681EF0100F08BF20ED5D
:10021000108A20E9F04F106009B44FF0500080F3CD
:100220001188BFF34F8FBFF36F8F0CF087FA4FF039
:10023000000080F3118809BC19680868B0E8F04F25
:100240001EF0100F08BFB0EC108A80F30988BFF3CE
:100250006F8F704740000020EFF30580704700006B
:100260000648804706480047FEE7FEE7FEE7FEE750
:10027000FEE7FEE7FEE7FEE7FEE7FEE7CD6C0008DF
:10028000890100082DE9F05F0546002092469B4653
:1002900088460646814640241BE02846414647469C
:1002A000224600F0DBF953465A46C01A914110D35A
:1002B00011461846224600F0C2F92D1A67EB0108D4
:1002C0004F4622460120002100F0B9F917EB000942
:1002D0004E41201EA4F10104DFDC484631462A4687
:1002E0004346BDE8F09F40EA01039B0703D009E0C5
:1002F00008C9121F08C0042AFAD203E011F8013B12
:1003000000F8013B521EF9D27047D2B201E000F86A
:10031000012B491EFBD270470022F6E710B51346A9
:100320000A4604461946FFF7F0FF204610BD2DE9A6
:10033000FE4F804681EA0300C00F0C46009021F07A
:10034000004123F00045B8EB0200A94105D2404628
:10035000214690461C460B46024623F000401043BF
:1003600047D0270DC7F30A00C3F30A510290401A81
:10037000019040286BDAC3F3130040F4801B00980F
:10038000924620B10023D2EB030A63EB0B0B0198DA
:100390005946C0F14002504600F051F906460D465C
:1003A00050465946019A00F069F910EB0800614186
:1003B000002487EA115284EAE7731A4340D0009A76
:1003C00062B3019A012A4FEA075215DC001B61EB68
:1003D00002014FF0004202EA0752CDE90042001C40
:1003E00041F5801132462B4600F0A0F903B0BDE87C
:1003F000F08F40462146F9E7001B61EB0201001C2B
:1004000041F5801300185B412018A2F5001747EB57
:10041000030140EAD570B6196D4111E06D084FEA4D
:10042000360645EAC0754FEA0752001B61EB020130
:10043000001C41F5801149084FEA30000019514174
:1004400032462B4603B0BDE8F04F00F060B900988B
:10045000012240000023D0EB020263EBE07300981E
:1004600021464FEAE074B8EB000061EB0401E9E7D4
:1004700083F000435BE781F0004158E72DE9FE4F30
:1004800081EA030404F0004421F0004100944FF09D
:10049000000B23F0004350EA01045ED052EA03044B
:1004A0005BD0C3F30A54C1F30A552C44A4F2F334CD
:1004B0000194A0FB0254C1F3130141F48011C3F372
:1004C000130343F4801301FB024400FB034E840A30
:1004D000970A44EA815447EA8357A4FB07680295C8
:1004E0008D0A05FB07854FEA932C04FB0C54270566
:1004F000029D4FEA065847EA1637B5EB08056EEB42
:10050000070C870E920E47EA811742EA8312A7FB77
:100510000201B6EB0B0164EB00042B0D43EA0C3334
:100520005E1844EB1C50DA465146E7FB0201C5F366
:1005300013044FEA0B3343EA14534FEA0432019C8D
:1005400043EA0603A4F10C040294009CCDE900B434
:1005500000F0ECF803B0BDE8F08F00200146F9E7A9
:100560000EB5C10F80EAE0700844CA07002140F2CE
:1005700033438DE80E000A460B4600F0D7F803B06F
:1005800000BDC1F30A5210B5C1F3130140F2FF33AD
:1005900041F480119A4201DA002010BD40F2334349
:1005A0009A42A2F2334203DC524200F057F810BDE7
:1005B000904010BD00F0004230F000400AD0C10D64
:1005C00001F56071C0F3160042EA0151C20840070C
:1005D0001143704700200146704701F0004330B4DA
:1005E00021F0004150EA010206D00A0DA2F5607226
:1005F000C1F31301002A02DC30BC00207047440F15
:1006000044EAC104C100E01830BC00EBC25000F065
:1006100047B830B50B46014600202022012409E0EE
:1006200021FA02F59D4205D303FA02F5491B04FAAB
:1006300002F52844151EA2F10102F1DC30BD202A8A
:1006400004DB203A00FA02F1002070479140C2F129
:10065000200320FA03F3194390407047202A04DB5B
:10066000203A21FA02F00021704721FA02F3D0402B
:10067000C2F120029140084319467047202A06DB48
:10068000CB17203A41FA02F043EAE07306E041FA60
:1006900002F3D040C2F1200291400843194670474E
:1006A0000029A8BF7047401C490008BF20F0010086
:1006B000704710B4B0FA80FC00FA0CF050EA010464
:1006C00004BF10BC704749B1CCF1200421FA04F4F6
:1006D00011FA0CF118BF012121430843A3EB0C01CF
:1006E000CB1D4FEA00614FEA102042BF002010BC32
:1006F000704700EBC35010440029A4BF10BC7047E2
:10070000401C490008BF20F0010010BC704710B524
:10071000141E73F1000408DA401C41F10001921824
:100720005B411A4301D120F0010010BD2DE9F04DCD
:1007300092469B4611B1B1FA81F202E0B0FA80F222
:1007400020329046FFF77BFF04460F4640EA0A003E
:1007500041EA0B0153465A46084313D0114653EA67
:10076000010019D0C8F140025046FFF777FF054657
:100770000E46504659464246FFF761FF084305D0F2
:10078000012004E020463946BDE8F08D00200543F5
:1007900046EAE0762C4337430A986305E40AA0EB67
:1007A00008000022FD0A44EA47540A3002D500201E
:1007B0000146E9E7010510196941DDE9084500191D
:1007C0006941BDE8F04DA2E72DE9F04D81EA03044F
:1007D00004F0004B21F0004514464FF0000A23F0CE
:1007E000004150EA050220D054EA01021DD0C5F3B1
:1007F0000A570246C5F31303C1F31300C1F30A56A7
:1008000040F4801543F48013A7EB0608101BD6466E
:1008100008F2FD3873EB050002D308F1010801E08E
:1008200092185B41B8F1000F03DA00200146BDE8E1
:10083000F08D00204FF48011064684460EE0171B11
:1008400073EB050705D3121B63EB050306434CEA64
:10085000010C49084FEA300092185B4150EA010749
:10086000EDD152EA030012D082EA040083EA0501C6
:10087000084305D0101BAB4106D20122002306E03D
:1008800000224FF0004302E06FF0010253101AEB18
:1008900006004CEB085110EB0A0041EB0B01BDE8E0
:1008A000F04DFFF734BF2DE9FE4FC3F30A5701F0B7
:1008B00000450024C1F30A56C3F31303C1F3130127
:1008C00043F4801312EB020AA64641F4801100950E
:1008D00043EB030CA7F1010B16E0B0EB0A0061EB50
:1008E0000C01071E71F1000707DA4FF00008D0EB8A
:1008F000080085F0004568EB0101171A73EB01074A
:10090000EBD3761E001849415E45F6DA50EA010243
:1009100009D0CDE900E5002213460296FFF706FF55
:1009200003B0BDE8F08F20460099F9E7C1F30A5201
:10093000C1F3130140F2FF3341F480119A4202DA0D
:1009400000200146704740F233439A42A2F23342FC
:1009500002DC5242FFF782BEFFF771BE30B5041EC3
:1009600071F1000404DB4FF00044404264EB0101EC
:10097000141E73F1000405DB1C464FF00043524285
:1009800063EB04038B4208BF824230BD30B5041EC6
:1009900071F1000404DB4FF00044404264EB0101BC
:1009A000141E73F1000405DB1C464FF00043524255
:1009B00063EB0403994208BF904230BD064C074DDB
:1009C00006E0E06840F0010394E80700984710341F
:1009D000AC42F6D3FFF7DCFBACE20008CCE2000847
:1009E0002DE9F04D00231A461B1A8A4103DB002033
:1009F0000146BDE8F08DC1F30A52C1F3130141F481
:100A000080154FF0000BD10702D100186D41521E26
:100A10000027044640F2FF11384601EB620A3E46C9
:100A20008046024600204FF48011FFF717FEC219DE
:100A30007141BB1846EB0100B4EB030C75EB000CE5
:100A400004D3E41A65EB000517460E46241908F195
:100A500001006D4180463428E3DDF91946EB0600BC
:100A6000091BA84103D24FF0FF32134601E00022D8
:100A700013461BEB070046EB0A51BDE8F04DFFF7AC
:100A800046BE0EB540F2334102910021CDE900117E
:100A90000A460B46FFF74AFE03B000BD70B5C1F32E
:100AA0000A5201F000450024C1F3130140F2FF3364
:100AB00041F480119A4201DA002070BD40F23343C4
:100AC0009A42A2F2334203DC5242FFF7C7FD00E034
:100AD00090402C43F1D0404270BD70B58C1810F896
:100AE000015B15F0070301D110F8013B2A1106D173
:100AF00010F8012B03E010F8016B01F8016B5B1E8D
:100B0000F9D12B0705D40023521E0DD401F8013B67
:100B1000FAE710F8013BCB1A921C03E013F8015BD3
:100B200001F8015B521EF9D5A142D8D3002070BD57
:100B300010B50146806B026C12F0500F05D0026CAC
:100B4000D20626D500F02AFA10BD016C41F40071DE
:100B5000016401688A6812F0405F17D1027EAAB969
:100B6000CA6A12F4700F02D08A6852050ED44A681D
:100B700022F020024A60016C21F480710164016C52
:100B8000C90403D4016C41F00101016400F004FACE
:100B900010BD806BC26CBDE810400846104710B510
:100BA000806B40210164416C41F00401416400F01C
:100BB000F5F910BD10B5806B00F0EFF910BD000025
:100BC000464910B54A6822F440324A604A68436890
:100BD0001A434A6001684A6822F480724A600168D8
:100BE0004A68036942EA03224A6001684A6822F0BF
:100BF00040724A6001684A6883681A434A60016823
:100C00008A6822F400628A6001688A68C3681A43AD
:100C10008A60816A6FF07062D14201688A6822F04E
:100C200070628A6001688A680CD0836A1A438A609D
:100C300001688A6822F040528A6001688A68C36A43
:100C40001A4301E022F040528A6001688A6822F06B
:100C500002028A6001688A68037E42EA43028A606F
:100C600090F82010002901684A680FD042F4006211
:100C70004A6001684A6822F460424A6001684A6832
:100C8000174C436A04EB43331A4301E022F4006239
:100C90004A600168CA6A22F47002CA620168CA6ABC
:100CA000838B104C04EB03531A43CA6201688A68B1
:100CB00022F400728A6001688A6890F8303042EA53
:100CC00043228A6001688A6822F480628A6001682F
:100CD0008A68406942EA8020886010BD0023014094
:100CE00000E0FFFF0000F0FFA0220249024800F0F0
:100CF000CDB90000BCE30020FC040020FEE70000AA
:100D0000014800F0E8BA0000A4050020014800F006
:100D1000E2BA0000CC050020034610B500200246D0
:100D200003E09C5C6040521C92B28A42F9D310BD31
:100D3000014800F07BBD00002C0A0020014800F0B3
:100D400075BD00000C090020014800F06FBD0000D7
:100D5000CC090020014800F069BD000044050020D6
:100D6000014800F063BD00006C09002001681823F1
:100D7000CAB2103AB2FBF3F2054B6FF30901032A32
:100D80009B5CC36500D9091D81650846704700005A
:100D9000E8D5000810B5014600208B698A6A4FF03B
:100DA000C07453B1B3F5005F15D072B1012A0CD0F5
:100DB000022A0AD0032A09D104E01AB1012A06D076
:100DC000022A03D1C96AC90100D5012010BDC96A30
:100DD000A142FAD010BD002AF7D0012AF2D0022A8F
:100DE000F3D0032AF3D010BD30B50468256825F48C
:100DF00080252560046863608368402B036803D006
:100E000099600068C26030BD9A600068C16030BD02
:100E10000148406870470000001000E00748006883
:100E200040F0807005490860002005494860084688
:100E3000006840F00100086070470000FCED00E031
:100E4000001000E0704772B6FEE7000078B500249D
:100E5000009490F83C20012A19D0012280F83C200F
:100E60000A6807230568092A13D9EE680A3A02EBD3
:100E7000420293409E43EE600B788A680A3B03EB84
:100E800043039A400368DD682A43DA6010E00220D9
:100E900078BD2E6902EB420293409E432E610B788F
:100EA0008A6803EB43039A4003681D692A431A6169
:100EB0004A681F23072A13D205686E6B521E02EB85
:100EC000820293409E436E630B790A885B1E92B246
:100ED00003EB83039A4003685D6B2A435A6327E060
:100EE00005680D2A12D22E6BD21F02EB82029340AC
:100EF0009E432E630B790A88DB1F92B203EB8303B8
:100F00009A4003681D6B2A431A6311E0EE6A0D3A9A
:100F100002EB820293409E43EE620B790A880D3BFE
:100F200092B203EB83039A400368DD6A2A43DA62D4
:100F3000164B0568144A9D4206D10D68122D03D147
:100F4000556845F48005556005689D4218D10B68C9
:100F5000102B01D0112B13D1536843F400035360BD
:100F6000096810290CD10A490A4A0968B1FBF2F153
:100F700001EB8101490000E0491E00910029FBD1ED
:100F800080F83C40002078BD002301400020014053
:100F90003C00002040420F0070477047704770B51A
:100FA00004004FF0000503D0206C002610B107E0CC
:100FB000012070BD204600F01DF8666484F83C6096
:100FC000206CC00610D4206C20F4885040F0020041
:100FD00020642046FFF7F4FD6664206C20F00200D8
:100FE00040F00100206400E0012584F83C602846C0
:100FF00070BD000070B586B0064614216846FFF744
:101000008BF91D493068884234D11C48002501689D
:1010100041F480710160006800F480700590174809
:101020001438016841F0040101600068694600F06D
:10103000040005900C2000900320CDE90105104824
:1010400000F02CFE104C0F48C4E900050015A56007
:10105000C4E90350400060618000A0614011C4E910
:1010600007052046656200F0B1FC08B1FFF7EBFE12
:10107000B463A66306B070BD00200140443802404E
:10108000000802401064024044050020F8B5044600
:1010900000200E46009094F83C10012907D0012151
:1010A00084F83C1021688B68DB0702D011E0022035
:1010B000F8BD8B6843F001038B604049404B0968E1
:1010C000B1FBF3F101EB410100E0491E0091002961
:1010D000FBD121688B68DB0503D58B6823F4807313
:1010E0008B6021688B68DB075DD0236C40F2016563
:1010F000AB4343F4807323644968490505D5216CEB
:1011000021F4005141F480512164216CC90404D5BB
:10111000616C21F00601616400E0606484F83C00C9
:10112000A16B2948274DC863A16B28480864A16BAF
:101130002748C86421686FF0220008602068416871
:1011400041F0806141602068816841F48071816074
:101150002168134632464C31A06B00F0A1FC686850
:101160001C49C006206806D0884224D1816811F04D
:10117000405F13D01FE08842F8D0174A904203D155
:10118000D1F80423D206F1D0144A904213D1D1F8F9
:10119000041301F01F011029E8D30CE0816841F02D
:1011A0008041816007E0206C40F010002064606C9A
:1011B00040F0010060640020F8BD00003C00002009
:1011C00040420F0000230140310B0008B50B00081E
:1011D0009F0B000800200140002101400022014037
:1011E000704770B590F82040012C05D0022C03D038
:1011F000416A41F4802128E0046809B32469A40706
:1012000020D04FF4D874056804EB01142D5915F063
:101210000405956005682D591AD0ED0855600568DC
:101220002C5904F00204D4604FF4DA74056804EB1E
:1012300001142E5906F00F06082E0CD308250DE0D8
:10124000E468DCE7416A41F400114162012070BDAD
:101250006D0D1560E3E72D5905F00F051561056863
:101260002D59C5F30725956105682C59240C546147
:101270004FF4DC72046802EB0112A4581C7004687D
:10128000A458240A5C700468A458240C9C70046858
:10129000A258120EDA704FF4DE72046802EB0112EB
:1012A000A4581C710468A458240A5C710468A458EA
:1012B000240C9C710468A258120EDA71006829B1DE
:1012C000016941F020010161002070BDC16841F059
:1012D0002001C160F8E72DE9F05F054600680024B1
:1012E0004669D0F804908768D0F80CB0D0F810A008
:1012F000D0F81880F10748D0F90714D00121816097
:10130000B80703D5284600F030FA0CE0780702D57C
:101310004FF4006407E0380702D54FF4805402E030
:10132000284600F021FAF80516D529684FF4807098
:101330008860B80503D5284600F019FA0CE0780556
:1013400002D544F4005407E0380502D544F4804443
:1013500002E0284600F00AFAF80316D529684FF48F
:1013600080308860B80303D5284600F002FA0CE00C
:10137000780302D544F4004407E0380302D544F46E
:10138000803402E0284600F0F3F9300707D55FEA21
:10139000CB6004D52968102044F40074C86070073D
:1013A0004FF0080707D55FEA0B7004D52868C760BF
:1013B000284600F099F9B00706D52868C06880076C
:1013C00002D0284600F092F9700607D55FEACA609D
:1013D00004D52968102044F480640861B00607D55C
:1013E0005FEA0A7004D528680761284600F0AEF964
:1013F000F00606D528680069800702D0284600F06C
:10140000A6F9B00308D55FEAC96005D529681020A0
:101410004860284600F0A7F9F00307D55FEA097095
:1014200004D528684760284600F0A4F9300446D562
:101430005FEA497040D5F00504D55FEAC87001D075
:1014400044F00104B00504D55FEA887001D544F08A
:101450000204700504D55FEA487001D544F0040425
:10146000300529D518F0700F26D008F070004028FC
:1014700015D006DC102809D020280AD0302816D133
:101480000AE050280ED0602811D10EE044F0080484
:101490000DE044F010040AE044F0200407E044F0BA
:1014A000400404E044F0800401E044F480742868BF
:1014B000816921F070018161296804204860002C55
:1014C00005D0686A204368622846FFF789FEBDE8B8
:1014D000F09F70B5040003D094F8200010B104E030
:1014E000012070BD204600F081F82068016841F0BD
:1014F0000101016000F0DCFC0546052604E000F077
:10150000D7FC401B0A2811D820684068C007F6D0D5
:101510002068016821F00201016000F0C9FC054665
:101520000BE000F0C5FC401B0A2806D9606A40F4B5
:101530000030606284F82060D2E72068406880074D
:10154000EFD4207E0128206801683DD021F0800181
:101550000160607E01282068016838D021F04001D8
:101560000160A07E01282068016833D021F02001AD
:101570000160E07E0128206801682ED041F0100152
:101580000160207F01282068016829D021F008012E
:101590000160607F01282068016824D021F00401E7
:1015A0000160D4E902010843D4E90412114308435D
:1015B0006168491E08432168C861002060620120FB
:1015C00084F82000002070BD41F08001C0E741F0A8
:1015D0004001C5E741F02001CAE721F01001CFE743
:1015E00041F00801D4E741F00401D9E7F0B587B034
:1015F000044614216846FEF78FFE364B3648DFF866
:10160000D0E01968D4F800C0334A03250226092720
:1016100010300024491CF44522D11960012907D15A
:10162000016841F000710160006800F000700590F1
:10163000106840F0080010601068CDE9005600F016
:101640000800CDE9047069462448CDE9024500F060
:1016500025FB00220521142000F094FD142033E026
:10166000DFF87CE0F44531D1D0F800C04CF0806C5C
:10167000C0F800C0D0F800C001290CF0806CCDF893
:1016800014C0196007D1016841F000710160006861
:1016900000F000700590106840F0020010601068C3
:1016A00002AB00F0020005904FF44050CDE9000677
:1016B00083E8B00069460B4800F0F0FA00220521EB
:1016C000412000F05FFD412000F04EFD07B0F0BD6D
:1016D000006400402C00002030380240000C024022
:1016E00000680040000402407047000000B58DB063
:1016F0000021009101916B4603AA0291FFF771FD51
:1017000000281DD1059880B90399B1F5C17F0CD18E
:101710000C48006848B10A91DDE90012CDE90B12CE
:10172000022302AA0AA90BF08DFA0298002807D01A
:1017300005494FF080500860BFF34F8FBFF36F8FA4
:101740000DB000BD2400002004ED00E0704700B59E
:1017500089B000210791089107AB6A460121FFF784
:1017600040FD09B000BD7047704770477047704733
:101770007047704770472DE9F0410446876D00F0CF
:1017800097FB064694F835000025022806D08020F5
:10179000606584F834500120BDE8F081206801685C
:1017A00021F0160101602068416921F0800141614A
:1017B000206C08B9A06C20B12068016821F00801F4
:1017C00001602068016821F0010101600CE000F077
:1017D0006FFB801B052807D920206065032084F853
:1017E000350084F83450D7E720680068C007EED190
:1017F00094F85C103F208840B860012084F83500E0
:1018000084F834500020C7E790F83510022903D03F
:101810008021416501207047052180F8351000685E
:10182000016821F001010160002070472DE9F843B3
:1018300004464FF00009CDF8009063484FF416516C
:10184000A56D0068B0FBF1F72E6894F85C100820D5
:1018500000FA01F131420FD021680A6852070BD516
:101860000A6822F004020A6094F85C108840A860BC
:10187000606D40F00100606594F85C104FF0010865
:1018800008FA01F0304208D021684969090604D5F8
:10189000A860606D40F00200606594F85C10042060
:1018A0008840304208D021680968890704D5A860BB
:1018B000606D40F00400606594F85C101020884072
:1018C000304218D021680968090714D5A86020683B
:1018D0000168490304D50068000308D5A16C07E03E
:1018E0000168C90503D4016821F008010160216C79
:1018F00009B12046884794F85C1020208840304287
:1019000031D021680968C9062DD5A86094F8350042
:1019100005282068016806D0490347D50068000300
:101920001DD4616C1CE021F0160101602068416942
:1019300021F080014161206C08B9A06C20B12068C1
:10194000016821F00801016094F85C103F20884094
:10195000A86084F8358084F83490216D1FE0E16B35
:1019600009B120468847606D00282BD0606DC00704
:1019700014D0052084F835002068016821F00101A9
:1019800001600098401C0090B84203D820680068AD
:10199000C007F6D184F8358084F83490E16C0029D2
:1019A00010D001B02046BDE8F04308470168C905E2
:1019B000D5D4016821F01001016084F8358084F8E5
:1019C0003490CCE7BDE8F8833C0000202DE9F041DD
:1019D000044600F06DFA06465CB1022084F835003A
:1019E000002584F834502068016821F0010101606D
:1019F0000DE00120BDE8F08100F05AFA801B0528B7
:101A000005D920206065032084F83500F2E72068BE
:101A10000068C007F0D12268116820480140D4E96D
:101A200001031843D4E90336334318436369184369
:101A3000A3691843E3691843236A18430843616A9A
:101A4000042903D1D4E90B1319430843106020681B
:101A50004069666A20F0070130460E4301270428DA
:101A60000CD1A06A0643E06A40B12046FFF792F924
:101A700020B14020606584F83570BAE7206846617F
:101A80002046FFF773F994F85C203F219140816074
:101A9000656584F835700020ACE700003F8010F0E9
:101AA0002DE9F0410446866D90F8340000250128A8
:101AB0000DD0012084F8340094F835700020012FF7
:101AC00007D084F8340002252846BDE8F0810220C2
:101AD000FBE7022784F8357060652046FFF784F93C
:101AE00094F85C103F208840B0602068016841F0A5
:101AF00016010160206C20B12068016841F00801E6
:101B000001602068016841F001010160DCE700002C
:101B100070B5044600F0CCF90546601C02D00448BC
:101B20000078044400F0C4F9401BA042FAD370BD11
:101B3000300000202DE9F04F0022DFF838B10126F7
:101B40004FF00F0906FA02F401EA0403A3427DD123
:101B500022F003075F44D7F8088895074FEA157C01
:101B600009FA0CFA0AEA0805DFF80C81404502D1AF
:101B70004FF0000832E0DFF80481404502D14FF019
:101B800001082BE0DFF8F880404502D14FF0020851
:101B900024E0DFF8F080404502D14FF003081DE05B
:101BA000DFF8E480404502D14FF0040816E0DFF88A
:101BB000DC80404502D14FF005080FE0DFF8D0800F
:101BC000404502D14FF0060808E0DFF8C8804045E4
:101BD00002D14FF0070801E04FF0080808FA0CF8AE
:101BE000A84522D12C4DD5F800C02CEA030CC5F82D
:101BF00000C005F1040CDCF800509D43CCF8005007
:101C0000254D0C35D5F800C02CEA030CC5F800C0F2
:101C10002D1FD5F800C02CEA030CC5F800C0D7F87A
:101C2000085825EA0A05C7F808580568570003232D
:101C3000BB409D430560D50800EB8505D5F820C065
:101C400057074FEAD76809FA08F700E00CE02CEADA
:101C5000070CC5F820C0C5689D43C5604568A5430D
:101C6000456084689C438460521C102AFFF46AAF6C
:101C7000BDE8F08F00300140000002400004024047
:101C800000080240000C0240001002400014024014
:101C900000180240001C0240003C01402DE9F84FB2
:101CA000DFF8BCA10022012503264FF00F090AF13D
:101CB000040BAAF1040E00BF0B6805FA02F42340DE
:101CC000A34270D10F7907F00307012F01D0022F33
:101CD00016D187684FEA420806FA08FC27EA0C0783
:101CE000D1F80CC00CFA08FC4CEA070CC0F808C08C
:101CF0004768A7430C79C4F3001494403C43446004
:101D00000C79E443A4070AD0C4684FEA420C06FAEF
:101D10000CF7BC438F6807FA0CF72743C7600C79B0
:101D200004F00304022C12D1D40800EB840CDCF87C
:101D300020405707FF0E09FA07F824EA0804D1F8F3
:101D4000108008FA07F848EA0408CCF820800468F4
:101D50004FEA420C06FA0CF7BC430F7907F0030771
:101D600007FA0CF7274307604C6814F4403F70D023
:101D70003C4C276847F480472760246822F003071B
:101D800004F480440094384C07EB040CDCF8084859
:101D900097074FEA177809FA08F7BC43334FB84260
:101DA00002D1002724E054E0314FB84201D101278D
:101DB0001EE0304FB84201D1022719E02E4FB84241
:101DC00001D1032714E02D4FB84201D104270FE0C1
:101DD0002B4FB84201D105270AE02A4FB84201D162
:101DE000062705E0284FB84201D1072700E0082761
:101DF00007FA08F72743CCF80878DAF80040574686
:101E0000D1F804C09C435FEACC2C00D51C433C6055
:101E1000DBF800405F46D1F804C09C435FEA8C2C9D
:101E200000D51C433C60DEF800407746D1F804C082
:101E30009C435FEA8C3C00D51C433C60084F083F44
:101E40003C68D1F804C09C435FEACC3C00D51C43FD
:101E50003C60521C102AFFF42FAFBDE8F88F000041
:101E6000083C01404438024000300140000002407C
:101E70000004024000080240000C02400010024032
:101E80000014024000180240001C02400069084093
:101E900000D001207047426921EA02030A4043EA68
:101EA0000241816170470AB1816170470904FBE713
:101EB000014880687047000030000020D0F8DC0343
:101EC00005F0E6BAD0F8DC0305F0F7BAD0F8DC0389
:101ED00005F023BB2DE9F04106680446304605F0C5
:101EE00082FB012877D1206805F013FC002872D00E
:101EF000206805F00EFC800203D521684FF4001025
:101F00004861206805F005FCC00203D521684FF444
:101F100080104861206805F0FCFB400103D5216872
:101F20004FF080604861206805F0F3FB800702D520
:101F3000216802204861206805F0EBFB800018D57D
:101F400021684FF000504861D6F84004C00710D116
:101F50001021304605F029FB304605F00AFB607A77
:101F6000022803D10121206805F0AFFB2046FFF7CE
:101F7000A9FF206805F0CDFBC00102D5204602F084
:101F80009AF8206805F0C5FB000705D5204600F04B
:101F90004AF8216808204861206805F0BAFB8001F2
:101FA00024D5206805F08DFB074600254FF0010879
:101FB00015E000BF05F00F0108FA01F038420DD01E
:101FC00006EB4510D0F80005E9B20004204603D521
:101FD00001F042FD02E01CE001F0FCFE6D1C6079A6
:101FE000A842E7D821684FF000704861206805F0EA
:101FF00090FBC043C0060CD42068816921F0100119
:102000008161204602F0A1F82068816941F0100149
:102010008161BDE8F081D0F8DC0305F08DBAD0F81D
:10202000DC0305F08DBAD0F8DC0305F067BA10B513
:10203000044690F8D403012809D0012084F8D40381
:10204000206805F089FB002084F8D40310BD02202D
:1020500010BD000002488168027811448160704719
:10206000300000200B4810B5016841F40071016098
:10207000016841F480610160016841F48071016090
:10208000032000F09FF80F2000F006F800F050F851
:10209000002010BD003C024030B505461F4887B007
:1020A0000024016841F020010160006806A900F0E9
:1020B0002000009001A800F031F90498A8B100F0C8
:1020C0004DF940001649174AB0FBF1F11648491E78
:1020D000026040F2E732C0E90324C0E901148461E0
:1020E00000F0B6FB040003D015E000F037F9E9E793
:1020F0000D4800F0FDFC04000DD1372000F034F84D
:10210000102D07D200222946372000F03BF807485F
:10211000056000E0012407B0204630BD4038024091
:1021200040420F00001400408C0A002034000020C0
:102130000C4882B0016841F480410160006800F4FD
:10214000804000900748001F016841F08051016005
:102150000068002200F0805000900F21901E02B015
:1021600000F010B844380240002809DB00F01F02DC
:10217000012191404009800000F1E020C0F80011E9
:1021800070470000F0B40E4B1B680C46C3F30223EB
:10219000C3F10705042D00D90425191D072901D213
:1021A000002300E0DB1E012606FA05F1491E21404E
:1021B00099409E40761E16403143F0BC05F0ABBB03
:1021C0000CED00E0064900F0070208684FF6FF0337
:1021D000184040EA0220034A10430860704700009C
:1021E0000CED00E00000FA052DE9F0470E46050071
:1021F00065D0DFF81481D8F80000F7B200F00700CE
:10220000B04207D288F80070D8F8000000F007004C
:10221000B04254D128683D4C810712D5400703D500
:10222000206840F4E05020602878000703D520683B
:1022300040F4604020602068A96820F0F000084366
:1022400020602878C0072DD03049686808390128F7
:1022500012D0022813D0032811D009688907002959
:102260002DDA216821F0030101432160FFF720FEF0
:10227000814641F2883A0EE009688903EFE7096870
:102280008901ECE7FFF714FEA0EB0901514502D9E3
:102290000320BDE8F0872068696800F00C00B0EB0F
:1022A000810FEFD1D8F80010404601F00701B1428C
:1022B00007D90770006800F00700B04201D0012084
:1022C000E7E72878400705D52068E96820F4E05062
:1022D000084320602878000706D52068296920F483
:1022E000604040EAC100206000F058F82168084AC8
:1022F000C1F30311515CC8400649086006480068F4
:10230000FFF7CAFE0020C4E7003C02400838024044
:10231000F0D500083C000020340000200F220260AD
:102320000C4A136803F003034360136803F0F003DF
:102330008360136803F4E053C36012684FF4E05302
:1023400003EAD20202610448006800F00700086056
:102350007047000008380240003C0240044805492C
:1023600000680968044AC1F38221515CC840704783
:102370003C0000200838024000D600080448054907
:1023800000680968044AC1F34231515CC840704793
:102390003C0000200838024000D60008154810B55F
:1023A000006810F00C02144813D04110042A0FD01A
:1023B000082A0ED10F4C241F2268236802F03F0226
:1023C0005B0207D52068C0F38810A0FB010106E07E
:1023D000084610BD2168C1F38811A1FB000100234C
:1023E000FDF750FF2168C1F30141491C4900B0FBD2
:1023F000F1F010BD083802400024F4002DE9F84F38
:1024000004006ED02078DFF84C93C007A9F10405D2
:102410004AD009F104000168C1F38101012908D003
:102420000068C0F3810002280AD1D9F800004002F8
:1024300006D52868800337D560680028E1D033E0EE
:102440006068B0F5803F10D0B0F5A02F286810D09C
:1024500020F480302860286820F48020286060689C
:10246000A8B1FFF725FD06460DE0286840F480304E
:10247000F4E740F480202860F7E700BFFFF718FD7D
:10248000801B642873D828688003F7D50CE0FFF719
:102490000FFD064605E000BFFFF70AFD801B64281C
:1024A000F0D828688003F7D42078DFF8AC82800762
:1024B0004FF0000A3ED5A748001D016811F00C0F2F
:1024C00008D00068C0F3810002280BD1D9F80000C1
:1024D000400207D42868800716D5E068012800D19B
:1024E00012E033E1E068B8B10120C8F80000FFF75E
:1024F000DFFC064605E000BFFFF7DAFC801B022880
:10250000C0D828688007F7D52868216920F0F8002E
:1025100040EAC10028600DE0C8F800A0FFF7C8FC41
:10252000064604E0FFF7C4FC801B02281FD8286879
:102530008007F7D42078000722D5864F8748616945
:10254000703771B101210160FFF7B2FC064604E06B
:10255000FFF7AEFC801B022809D838688007F7D542
:102560000EE0C0F800A0FFF7A3FC064605E082E0FD
:10257000FFF79EFC801B02287DD838688007F7D4BF
:102580002078400768D5DFF8CCB100270BF13C0B71
:10259000DBF80000C0000BD4DBF8001041F08051E4
:1025A000CBF80010DBF80000012700F0805000900D
:1025B0006B4E3068C00510D4306840F480703060D5
:1025C000FFF776FC009005E0FFF772FC0099401AD7
:1025D000022850D83068C005F6D55E4EA0686C362B
:1025E00001280FD00528306810D020F0010030609D
:1025F000306820F004003060A068B8B1FFF758FCE4
:1026000000900FE0306840F00100F4E740F0040073
:102610003060F7E7FFF74CFC0099411A41F288302F
:10262000814266D830688007F4D50EE0FFF740FCA1
:10263000009007E0FFF73CFC0099411A41F2883016
:10264000814256D830688007F4D42FB1DBF80010EF
:1026500021F08051CBF80010A069C8B33D49091D95
:102660000968C1F3810102294AD00228504607D0E7
:10267000C8F8600000E03CE0FFF71AFC04463BE0CD
:102680004746C8F86000FFF713FC064605E000BFA8
:10269000FFF70EFC801B02282BD828688001F7D496
:1026A000D4E907010843A16A2E4A490802EB014117
:1026B000626A41EA8211084394F82C1040EA0161F1
:1026C000C9F8001001203866FFF7F2FB044606E067
:1026D0003EE000BFFFF7ECFB001B022809D828688A
:1026E0008001F7D534E000BFFFF7E2FB001B0228B2
:1026F00002D90320BDE8F88F28688001F4D427E0D0
:102700000128F7D0D9F80000E26900F48001914275
:102710001CD1226A00F03F01914217D147F6C071E7
:10272000626A0140B1EB821F10D1A26A4FF0FF3301
:1027300000F4403103EB5202B1EB024F06D194F8A2
:102740002C1000F07060B0EB016F01D00120D1E7D8
:102750000020CFE70438024000004742800E474285
:10276000007000400000FFFF7047704710B590F800
:102770003C20012A22D0012280F83C20CA688C68C3
:1027800022F4407222434C6822F4806222430C6897
:1027900022F4006222430C6922F4805222434C69E5
:1027A00022F400522243C969002322F480420A43E2
:1027B00001684A6480F83C30002010BD022010BD42
:1027C00070B590F83C20012A32D0012480F83C40BA
:1027D000022280F83D2003685A689D6822F0700646
:1027E0000A6832435A60134B02689A4214D0B2F11D
:1027F000804F11D0104B9A420ED0104B9A420BD002
:102800000F4B9A4208D00F4B9A4205D00E4B9A427A
:1028100002D00E4B9A4204D1496825F08003194337
:10282000916080F83D40002180F83C10084670BD62
:10283000022070BD0000014000040040000800407C
:10284000000C00400004014000400140001800401E
:1028500010B5040003D094F83D0010B107E001204A
:1028600010BD002084F83C00204600F01FF8022034
:1028700084F83D00211D206804F048FA012084F806
:10288000460084F83E0084F83F0084F8400084F855
:10289000410084F8420084F8430084F8440084F83E
:1028A000450084F83D00002010BD0000F0B587B061
:1028B000044614216846FDF72FFD654A236800256C
:1028C0006349103A032602246248B3F1804F35D0A1
:1028D000614FBB4252D10B6843F002030B600968A1
:1028E00001F002010591116841F0010111601168C8
:1028F00001F001010591116841F0020111601168B8
:1029000001F002010591C0218DE83200CDE90354A8
:102910006946FFF7C3F90096CDE90145CDE90354B7
:1029200069464E48FFF7BAF9002205211D20FFF73E
:1029300029FC1D20FFF718FC07B0F0BD0B6843F021
:1029400001030B60096801F001010591116841F074
:10295000010111601168009601F001010591CDE9B6
:1029600001450121CDE903516946FFF797F900229E
:1029700005211C20FFF706FC1C20DBE738488342BA
:1029800036D1086840F004000860086800F00400D0
:102990000590106840F0080010601068314E00F09B
:1029A000080005904FF440508DE83100CDE9035404
:1029B00069463046FFF772F94FF400408DE8310068
:1029C000CDE9035469463046FFF768F94FF480407B
:1029D000CDE90004CDE90245694630460494FFF78D
:1029E0005DF9002205211E20FFF7CCFB1E20A1E788
:1029F0001D48834207D1086840F01000086008684D
:102A000000F010000BE012481849001D8B4208D15D
:102A1000016841F002010160006800F002000590C9
:102A20008AE713498B4207D1016841F48031016084
:102A3000006800F48030F2E70E498B42F0D1016863
:102A400041F480210160006800F48020E7E7000085
:102A500040380240000002400004004000040240F0
:102A600000080040000C024000100040000401403B
:102A7000004001400048014090F83D10012901D07C
:102A800001207047022180F83D10006811498842FA
:102A900014D0B0F1804F11D00F4988420ED00F49A9
:102AA00088420BD00E49884208D00E49884205D092
:102AB0000D49884202D00D49884204D1816801F055
:102AC0000701062903D0016841F0010101600020DF
:102AD0007047000000000140000400400008004072
:102AE000000C00400004014000400140001800407C
:102AF00090F83D10012901D001207047022180F893
:102B00003D100168CA6842F00102CA6000681149BC
:102B1000884214D0B0F1804F11D00F4988420ED0B6
:102B20000E4988420BD00E49884208D00D49884290
:102B300005D00D49884202D00C49884204D18168F1
:102B400001F00701062903D0016841F0010101608D
:102B500000207047000001400004004000080040D1
:102B6000000C0040000401400040014000180040FB
:102B700070B5044690F83C000025012817D00126C6
:102B800084F83C60022084F83D002068826822F0CE
:102B9000770222F47F4282600868502838D00DDC2A
:102BA00020284FD005DC90B3102811D14AE0022034
:102BB00070BD302846D040280AD13BE060282FD095
:102BC00070280DD0B0F5805F03D0B0F5005F12D053
:102BD000012584F83D60002084F83C00284670BD43
:102BE000CB68D1E90121206804F009F920688168E7
:102BF00041F0770109E0CB68D1E90121206804F0B8
:102C0000FEF82068816841F480418160E1E719E0C5
:102C1000CA684968206804F0C7F95021206806E0B6
:102C2000CA684968206804F011FA6021206804F03D
:102C3000F0F8CEE7CA684968206804F0B5F9402189
:102C40002068F4E7226801461046F0E710B5044614
:102C50000AF0B2FA022807D10448844204D120467F
:102C6000BDE8104003F08ABF10BD000084060020BC
:102C70002DE9F041054690F83C0000260C4601285D
:102C800010D0012085F83C0072B1042A1CD0082A1B
:102C90002CD00C2A50D00126002085F83C0030466C
:102CA000BDE8F0810220FBE7D4E90012E368286860
:102CB00004F08CF92868816921F00C018161286891
:102CC0008169A26811430FE0D4E90012E368286823
:102CD00004F0CEF92868816921F440618161286897
:102CE0008169A26841EA02218161D5E72868D4E9B7
:102CF000002C277B036A016A21F480710162C1699B
:102D000023F4206321F0030141EA0C0121F0F00CCF
:102D100039074FF420674CEA116107EA02221A438F
:102D2000C16102622868C16921F00C01C161286893
:102D3000C169A26811432BE02868D4E90021E76843
:102D4000036AD0F820C02CF4805CC0F820C0D0F812
:102D50001CC023F420432CF4407C4CEA012121F4D4
:102D6000704C4FF6FF7101EA07314FF4204741EAFA
:102D70000C0107EA02321A43C16102622868C16984
:102D800021F44061C1612868C169A26841EA022159
:102D9000C16181E710B5040003D094F83D0010B183
:102DA00007E0012010BD002084F83C00204600F020
:102DB0001EF8022084F83D00211D206803F0A6FFC4
:102DC000012084F8460084F83E0084F83F0084F82F
:102DD000400084F8410084F8420084F8430084F8FD
:102DE000440084F8450084F83D00002010BD704781
:102DF00030B50446002551B104290DD0082910D062
:102E000094F8410094F84520012811D10EE094F87F
:102E10003E0094F84220F7E794F83F0094F84320EE
:102E2000F2E794F8400094F84420EDE7012A01D03D
:102E3000012030BD022059B1042912D0082919D02F
:102E400084F8410084F845000C2944D0012540E075
:102E500084F83E0084F842002068C26842F0020212
:102E600010E084F83F0084F843002068C26842F014
:102E7000040207E084F8400084F844002068C26837
:102E800042F00802C2600122206803F0ABFF14493F
:102E90002068884214D0B0F1804F11D01149884287
:102EA0000ED0114988420BD01049884208D01049F1
:102EB000884205D00F49884202D00F49884204D188
:102EC000816801F00701062903D0016841F0010182
:102ED0000160284630BD2068C26842F01002D1E788
:102EE000000001400004004000080040000C0040C9
:102EF0000004014000400140001800402DE9F0416D
:102F000004460068C66805694FF00007A90713D595
:102F1000B10711D5F91E0161012020772068806971
:102F20008007204602D0FFF791FE04E000F0D8F8B9
:102F3000204600F06AF92777680716D5700714D580
:102F400021686FF004000861022020772068806902
:102F500010F4407F204602D0FFF778FE04E000F036
:102F6000BFF8204600F051F92777280715D530071C
:102F700013D521686FF008000861042020772068CD
:102F8000C0698007204602D0FFF760FE04E000F031
:102F9000A7F8204600F039F92777E80616D5F0069D
:102FA00014D521686FF01000086108202077206890
:102FB000C06910F4407F204602D0FFF747FE04E0CE
:102FC00000F08EF8204600F020F92777E80708D0B7
:102FD000F00706D021686FF001000861204600F07C
:102FE00079F9280608D5300606D521686FF08000EB
:102FF00008612046FFF7B8FB680608D5700606D5BD
:1030000021686FF040000861204600F082F9A806B0
:103010000AD5B00608D521686FF020000861204667
:10302000BDE8F041FFF7A1BBBDE8F08130B587B046
:10303000044614216846FDF76FF92468214D0020ED
:10304000214902220323AC4210D10C6844F004044D
:103050000C60096801F004010591C0210091CDE9DF
:103060000120CDE903036946184812E0184DAC422F
:1030700013D10C6844F010040C60096801F01001D1
:10308000059160210091CDE90120CDE90303694656
:103090001048FEF703FE07B030BD0F4DAC42FAD129
:1030A0000C6844F002040C60096801F0020105910B
:1030B00069150091CDE90120CDE903036946074870
:1030C000E7E70000000401403038024000080240F9
:1030D000004001400010024000480140000402404E
:1030E000704770B5044690F83C0000260D46012854
:1030F0000FD0012084F83C006AB1042A1DD0082AB0
:103100002FD00C2A3FD00126002084F83C00304606
:1031100070BD022070BD206803F084FE20688169C4
:1031200041F0080181612068816921F00401816119
:10313000206881692A69114311E0206803F0A2FE2A
:103140002068816941F4006181612068816921F40E
:1031500080618161206881692A6941EA0221816177
:10316000D2E7206803F0C4FE2068C16941F008017D
:10317000C1612068C16921F00401C1612068C16991
:103180002A69114311E0206803F0E6FE2068C16956
:1031900041F40061C1612068C16921F48061C161AD
:1031A0002068C1692A6941EA0221C161ACE710B512
:1031B000040003D094F83D0010B107E0012010BDD9
:1031C000002084F83C00204600F01EF8022084F81D
:1031D0003D00211D206803F099FD012084F8460080
:1031E00084F83E0084F83F0084F8400084F84100F1
:1031F00084F8420084F8430084F8440084F84500D1
:1032000084F83D00002010BD7047704710B504469B
:10321000022249B104290ED0082913D094F84100A4
:10322000012816D0012010BD94F83E000128F9D1E4
:1032300084F83E200FE094F83F000128F2D184F892
:103240003F2008E094F840000128EBD184F84020AA
:1032500001E084F841200122206803F0C3FD1649F3
:103260002068164A884201D0904203D1436C43F44F
:10327000004343642068884213D0B0F1804F10D0DF
:103280000F4988420DD00F4988420AD00E49884222
:1032900007D0904205D00D49884202D00C4988429F
:1032A00004D1816801F00701062903D0016841F0CB
:1032B00001010160002010BD000001400004014038
:1032C0000004004000080040000C004000400140A5
:1032D0000018004000680349884201D1FEF7BABED9
:1032E00070470000001400400246002041B104294C
:1032F00009D008290AD00C2901D11068006C704748
:103300001068406B70471068806B70471068C06B26
:103310007047704770477047F8B501680446086801
:10332000CA684B6910F00F0F4FF0000559D003F039
:10333000010602F49077374365D0C10705D0D10567
:1033400003D5616C41F001016164410705D5D907DE
:1033500003D0616C41F002016164810705D5D90792
:1033600003D0616C41F004016164010707D502F0EC
:103370002001314303D0616C41F008016164616C4C
:1033800000293AD0800604D5900602D5204603F0E5
:1033900019FF20684069616CC0F38010090700D4F0
:1033A00060B3204603F0D9FE20684069400621D56D
:1033B0002068143050E8001F21F0400140E800125E
:1033C000002AF5D1E06BA8B16E490165E06BFEF70C
:1033D0001BFA002811D0E06B016D01B0BDE8F04090
:1033E000084783060FD593060DD52046BDE8F84063
:1033F00003F0E8BE2046FFF78EFFF8BD2046FFF73A
:103400008AFF6564F8BD266B2023012E7DD1C60698
:103410007BD5D60679D508684868009048694FF092
:103420000206400641D5E16B086840680004000CC4
:10343000E8D0A28D8242E5D9E085C869B0F5807FE9
:103440002DD020680C3050E8001F21F4807140E836
:103450000012002AF5D12068143050E8001F21F036
:10346000010140E80012002AF5D12068143050E82C
:10347000001F21F0400140E80012002AF5D184F835
:103480004230256320680C3050E8001F21F0100105
:1034900040E80012002AF5D1E06BFEF76CF9666394
:1034A000A08DE18D401A81B22AE0A08DE18D401AF5
:1034B00081B2E08D0028A5D00029A3D022680C326B
:1034C00052E8000F20F4907042E80007002FF5D179
:1034D0002068143050E8002F22F0010240E8002755
:1034E000002FF5D184F84230256320680C3050E875
:1034F000002F22F0100240E80023002BF5D1666374
:103500002046FFF707FFF8BDFFE705062BD5150698
:1035100029D594F841002128F5D1A068B0F5805F45
:1035200001D12069B0B1206A411C21622168007874
:103530004860E08C401E0004000CE084E3D1206869
:10354000C16821F08001C1602068C16841F040017C
:10355000C160D8E7206A0088C0F308004860206A8C
:10356000801C2062E5E74006CDD55006CBD5CA6861
:10357000204622F04002CA6084F8413000F06AFA26
:10358000C1E70000B570000870B5040004D094F8DD
:103590004100002510B106E0012070BD84F84050C4
:1035A000204600F023F8242084F841002068C168F8
:1035B00021F40051C160204603F066FE20680169D5
:1035C00021F4904101612068416921F02A014161A3
:1035D0002068C16841F40051C1606564202084F80E
:1035E000410084F842006563002070BD2DE9F04F72
:1035F00087B0054614216846FCF78EFE9448DFF834
:103600004C8210380221D5F800C00024904B0322D0
:103610008E0607154FF4406B4FF0400AC4453ED16B
:10362000D3F800C04CF4002CC3F800C01B6803F4AE
:1036300000230593036843F0040303600068CDF89A
:1036400000B000F004000590CDE901140820CDE998
:10365000032069467F48FEF721FBDFF800827E49A0
:103660004046C0E90347C8F81440C8F81840C8F8F5
:103670001C40C8F8204088E84204C8F82440FEF7FF
:10368000A5F908B1FDF7DFFBC5F838800022052158
:103690003420C8F83850FEF775FD342048E0DFF8D4
:1036A000C081DFF8C0E14FF00709C44545D1684B40
:1036B0001B1DD3F800C04CF0100CC3F800C01B68F1
:1036C00003F010030593036843F0010303600068EF
:1036D00000F0010005904FF4C0608DE81300CDE9C3
:1036E000032969467046FEF7D9FADFF870815E4912
:1036F00008F160084046C0E90347C8F81440C8F81C
:103700001840C8F81C40C8F8204088E84204C8F8AF
:103710002440FEF75BF908B1FDF795FBC5F838804A
:10372000002205212520C8F83850FEF72BFD252062
:10373000FEF71AFD07B0BDE8F08FDFF83081C44511
:103740003FD1D3F800C04CF4003CC3F800C01B6864
:1037500003F400330593036843F00103036000683A
:1037600000F0010005900C208DE81300CDE903293D
:1037700069467046FEF792FADFF8E080364908F1B4
:10378000C00840463031C0E90347C8F81440C8F8C3
:103790001840C8F81C40C8F8204088E84204C8F81F
:1037A0002440FEF713F908B1FDF74DFBC5F838804A
:1037B000002205212620C8F83850FEF7E3FC262019
:1037C000B6E7DFF8AC80C445B4D1D3F800C04CF400
:1037D000802CC3F800C01B6803F4802305930368A2
:1037E00043F0020303600068CDF800B00392CDE916
:1037F000011400F00200CDE9049069461D48FEF76F
:103800004DFA1549DFF8708048394046C8F8001075
:10381000C0E90164C0E90347C8F81440C8F818407B
:10382000C8F81C40C8F82040C8F82440FEF7CEF87D
:1038300008B1FDF708FBC5F83C80002205212720D0
:10384000C8F83850FEF79EFC272071E7004C004076
:103850004038024000080240706002400C0900201D
:103860000010014000000240B864024000440040E3
:1038700000480040000402402C0A002090F842302A
:10388000202B01D00220704721B11AB1002303631D
:1038900003F080BD0120704708B5002100911C494C
:1038A00088420BD11B48006820B100236A461A49A0
:1038B00009F0C8F90122184915481BE01749884248
:1038C0000BD11748006820B100236A46154909F05A
:1038D000B9F90122134911480CE01349884203D178
:1038E00001221249104805E0114988420FD10122F6
:1038F00010490F48FFF7C2FF0098002807D00E4973
:103900004FF080500860BFF34F8FBFF36F8F08BD3B
:103910007C0800200C00002001000020EC070020A3
:1039200014000020020000203408002003000020C2
:10393000C40800200400002004ED00E02DE9F84355
:10394000044690F84100984616460D46202802D0BD
:103950000220BDE8F88385B17EB10020606421209B
:1039600084F84100FEF7A4FAA6848146E684A068A4
:103970002027B0F5805F02D003E00120E9E720694D
:1039800010B12E4600250EE000260CE080212046D6
:1039900003F01BFDA8B9C6B116F8010B21684860F9
:1039A000E08C401EE084E08C4B464FF00002CDF8E6
:1039B00000800028EAD14FF04001204603F005FDC9
:1039C00040B184F841700320C3E735F8020BC0F31F
:1039D0000800E3E784F841700020BAE770B50446B8
:1039E00090F84100202801D0022070BD49B342B3B5
:1039F0002162A284E28400206064212384F84130A3
:103A0000A56B114BEB63A56B104B2B64A56B104B97
:103A1000EB64A36B1865256813462A1DA06BFEF79F
:103A20003FF821686FF0400008602068143050E8CB
:103A3000001F41F0800140E80012002AF5D100206B
:103A400070BD012070BD00000F71000851710008A9
:103A5000C5700008704770472DE9F05F05460068A3
:103A60000E46074603F04DFEC6EB061140074FF029
:103A700007084FF0040905EB810401D5484633E0FF
:103A80003146286803F03DFEC0054FF0080A08D50E
:103A900007EB46114FF48070C1F8080584F84DA07B
:103AA00028E03146286803F02CFE000705D507EB17
:103AB0004611C1F808A506200CE03146286803F03D
:103AC00020FE400509D507EB46114FF48060C1F890
:103AD0000805092084F84D000CE03146286803F001
:103AE00010FE00060AD5802007EB4611C1F8080534
:103AF00084F84D803146286803F079FD3146286806
:103B000003F0FFFD80052868314604D503F06FFD02
:103B10004FF4007059E103F0F4FDC0074FF0200BA3
:103B20004FF0010A4FF000084ED007EB4617C7F8D8
:103B300008B5E07E012807D184F81B80D7F804057A
:103B400020F48030C7F80405A87930B1206BD7F88D
:103B50001015C1F31201401AA06384F84DA0C4F8F7
:103B600044805246C7F808A594F8260030B10228D0
:103B700004D003280AD0012808D013E03146286871
:103B800003F035FD1020C7F808050BE0D7F8000555
:103B900040F00050C7F8000584F84C203146284614
:103BA000FEF794F9A879012807D1208DA16B014473
:103BB000491EB1FBF0F0C00704D014F83C0F80F0B0
:103BC00001002070BDE8F09F3146286803F099FDA0
:103BD00080060CD507EB4611C1F808B5A07E012878
:103BE000F0D184F81BA0032084F84D00B4E03146E6
:103BF000286803F086FD80074FF0050B75D507EBAD
:103C000046100221C0F8081594F84D20012A16D05C
:103C1000062A19D0072A1CD0092A1AD0052A33D01F
:103C2000032A63D0042A7DD0082A7ED0022AC9D074
:103C300094F84C2031462846FEF748F9C2E784F84C
:103C40004D1084F84CA0F3E784F84D1084F84CB084
:103C5000EEE784F84D10626C521C6264022A10D99F
:103C6000C4F84480A27E4146012A07D1E17621773B
:103C7000D0F8041521F48031C0F8041584F84C9074
:103C8000D6E784F84C1022E084F84D10E27E012A39
:103C9000CED194F82620032AF3D1A26C521CA26440
:103CA000022A11D9C4F8488084F81B80616C03296A
:103CB00001D284F81CA0D0F8041521F48031C0F89A
:103CC000041584F84C9002E084F84C10B0E794F8A6
:103CD000261009B10229ABD1D0F8001521F080419E
:103CE00041F00041C0F80015A2E724E084F84D102F
:103CF000E27E012A9CD184F84C10D0F8041541F4DE
:103D00008031C0F80415D0F80C1541F04001C0F81E
:103D10000C15D0F80C1521F02001C0F80C15D6E7D1
:103D200000E002E084F84D10ABE784F84D10606CC1
:103D3000401C6064A2E73146286803F0E2FC4006BC
:103D400010D507EB46114020C1F8080584F84DB0A6
:103D5000A07E08B9C4F8448031462868BDE8F05F09
:103D600003F045BC3146286803F0CBFCC0067FF564
:103D700065AF94F82600032803D028B1022803D0A9
:103D80000FE0C4F8448006E0C4F84480A87910B17C
:103D9000E07E012818D184F84D903146286803F060
:103DA00026FCE07E01280FD107EB461084F81B802B
:103DB000D0F8041521F48031C0F80415D0F80C15A2
:103DC00041F02001C0F80C15102007EB4611C1F896
:103DD0000805F7E62DE9F05F054600680F46064640
:103DE00003F08FFCC7EB071140074FF0040A05EB07
:103DF000810405D506EB4711C1F808A5072089E025
:103E00003946286803F07DFC80064FF000084FF02B
:103E100001094FF0020B28D506EB47112020C1F80D
:103E20000805607E0326012809D184F8198084F8EA
:103E30004CB084F84D603946286803F0D8FBA07E6A
:103E4000012810D1E07E00280DD194F82600012829
:103E500001D084F81B9084F84D603946286803F03F
:103E6000C6FBC4F84480BDE8F09F3946286803F0DB
:103E700048FC800506D506EB47114FF40070C1F8E9
:103E8000080549E03946286803F03BFCC00720D00C
:103E9000C4F844803946286803F033FC400606D550
:103EA00006EB471184F819904020C1F80805E07E20
:103EB00048B106EB471084F81B80D0F8041521F4B4
:103EC0008031C0F8041506EB47114846C1F8089543
:103ED00020E03946286803F014FC40060ED5052082
:103EE00084F84D00A07E08B984F81990C4F8448085
:103EF0003946286803F07BFB402028E039462868D3
:103F000003F0FFFB00070DD506EB47110820C1F8B1
:103F10000805062084F84D0039462868BDE8F05FA2
:103F200003F065BB3946286803F0EBFBC00613D5E8
:103F3000C4F8448084F84DA0607E18B9207E08B98A
:103F400084F819903946286803F051FB102006EBDD
:103F50004711C1F8080586E73946286803F0D1FB08
:103F600000061CD5A87970B1606C401C6064022802
:103F700011D9C4F84480524684F84CA039462846EA
:103F8000FDF7A4FF09E0072084F84D0039462868B2
:103F900003F02DFB01E084F84CB08020D7E73946D0
:103FA000286803F0AEFB400509D5092084F84D00D0
:103FB0003946286803F01BFB4FF48060C7E7394699
:103FC000286803F09EFB8007C5D506EB47125846CC
:103FD000C2F808B594F84D10012917D003293AD03A
:103FE00004293ED005294CD006294DD0072901D0FF
:103FF0000929B0D184F84D00616C491C6164022923
:1040000048D9C4F8448084F84CA04DE084F84D00B1
:1040100084F84C9094F82600022801D0032843D15C
:10402000A87928B994F83D0080F0010084F83D009B
:10403000A879012838D1606B10B3218D0844401E47
:10404000B0FBF1F0C0072FD094F83D0080F00100E4
:1040500084F83D0028E084F84D00E17E012916D067
:1040600022E084F84D0084F84C00E07E01281BD14A
:1040700084F81B80D2F8040520F48030C2F80405CF
:1040800012E084F84D0002E084F84D00052084F829
:104090004C0009E084F84C00D2F8000520F0804084
:1040A00040F00040C2F8000594F84C2039462846FC
:1040B000FDF70CFFD7E67CB504680546D4F840044C
:1040C0000190D4F8400420F02E0000900198800761
:1040D00009D50198C00702D02846FDF7EFFE0098E9
:1040E00040F0020000900198000724D5009840F0AD
:1040F00008000090019840071AD5687A022803D07A
:10410000E87901280CD00FE00198C0F34140022863
:10411000286803D0012103F0D8FA05E00221FAE76C
:104120004EF66020C4F804042846FDF778FF02E04C
:104130002846FDF770FF01988006009802D540F0F0
:1041400020000090C4F840047CBD2DE9F0410246F7
:1041500000680646016AC1F3434301F00F07C1F34B
:104160000A15022B2ED1002D2CD0C7EB071102EB24
:104170008104E16A002925D0A26B636B2A449A422C
:1041800022D82A4603F0C9FAE06A2844E062A06B0C
:104190002844A06306EB4710D0F81015228DC1F318
:1041A000C941AA420ED100290CD0D0F8001521F047
:1041B000804141F00041C0F8001514F83C0F80F038
:1041C00001002070BDE8F081042084F84C00F9E77C
:1041D0002DE9F0412DED0E8BF0EE40AA05460E467E
:1041E00017461AEE900AFCF7E5F941EC1C0B9FED1F
:1041F000531BB0EE4C0AF0EE6C0A04F0BFF9B0EEBF
:1042000040BAF0EE60BA51EC1B0BFCF7E6F90AEE8F
:10421000900AB7EE000AB0EE40DAB7EE000AB0EE50
:10422000408A9FED480ACAEE800ABDEEE00A10EE11
:10423000100A062190FBF1F201FB12049FED410AE6
:10424000CAEE800A00EE104AB8EEC00A30EEC00A8C
:10425000F0EE40EAB7EE000A30EE4D0A20EE080A12
:10426000B0EE40AAB7EE000A0EEECD0A20EE080A24
:10427000F0EE40DAB7EE000A70EE6E0AB7EE000A12
:1042800000EECD0A20EE080AB0EE40EA062C2ED24F
:10429000DFE804F0030A11181F26F0EE488AB0EE9A
:1042A0004E9AF0EE4A9A29E0F0EE6D8AB0EE489A06
:1042B000F0EE4A9A22E0F0EE4A8AB0EE489AF0EE2A
:1042C0004E9A1BE0F0EE4A8AB0EE6D9AF0EE489AF4
:1042D00014E0F0EE4E8AB0EE4A9AF0EE489A0DE005
:1042E000F0EE488AB0EE4A9AF0EE6D9A06E0DFED05
:1042F000168AF0EE689AB0EE689A00BF00BF9FED94
:10430000130A28EE800ABCEEC00A10EE100A2870CC
:104310009FED0E0A29EE000ABCEEC00A10EE100A4C
:1043200030709FED0A0A29EE800ABCEEC00A10EE3A
:10433000100A3870BDEC0E8BBDE8F0810000000063
:1043400000807640000070420000000000007F43C3
:10435000FEE70000FEB54FF4FA760127164C002068
:10436000CDE900768DF808007F22656902ABD02187
:104370002046A847CDE9007605460022D4F818C0AB
:1043800002ABD0212046E0472844C5B29DF8080082
:10439000EA280ED14020CDE900768DF808000622EB
:1043A000666902ABD0212046B047284410F0FF00D8
:1043B00000D00120FEBD0000140100202DE9FE43C5
:1043C0004FF4FA760124614DCDE900464FF0000824
:1043D0008DF808807F226F6902ABD0212846B8474C
:1043E000CDE9004607460022D5F818C002ABD0211F
:1043F0002846E0473844C7B29DF80800EA287DD136
:104400008020CDE900468DF808000622D5F814C0BA
:1044100002ABD0212846E0470744E9696420884779
:10442000CDE900468DF8088003226E6902ABD021E9
:104430002846B0476426CDE900468DF80840074479
:104440000622D5F814C002ABD0212846E047074425
:104450002020CDE900468DF808007F22D5F814C051
:1044600002ABD0212846E047CDE900464FF00709CE
:104470008DF8089007440022D5F814C002ABD02173
:104480002846E04707443320CDE900468DF8080070
:104490000122D5F814C002ABD0212846E047CDE96F
:1044A00000468DF8089007441122D5F814C002ABDD
:1044B000D0212846E04707443120CDE900468DF859
:1044C00008001422D5F814C002ABD0212846E047DA
:1044D000CDE900468DF8088007447F22D5F814C046
:1044E00002ABD0212846E04707440220CDE9004630
:1044F0000F228DF8080002ABD02100E022E0D5F8B1
:1045000014C02846E047CDE9004607440122D5F80B
:1045100018C002AB18212846E0473844C7B29DF8BE
:10452000080009280ED10820CDE900468DF80800C2
:1045300031226C6902AB18212846A047384410F09C
:10454000FF0000D00120BDE8FE8300001401002020
:104550002DE9F0411D4616460C468046069F07F0A1
:10456000C5F8E0B240F00101404607F09AF839463C
:10457000404607F0F0F810B100246F1E10E04046EE
:1045800007F0D0F80320BDE8F081BC4201D0012142
:1045900000E00021404607F035F83055641CA4B215
:1045A000AC42F2D3404607F0BDF80020EBE72DE91E
:1045B000F0411D4616460C468046069F07F096F8C9
:1045C000E1B2404607F06DF83946404607F0C3F8BF
:1045D000A0B100240AE0315D404607F062F8394698
:1045E000404607F0B8F848B1641CA4B2AC42F2D31C
:1045F000404607F097F80020BDE8F081404607F0FC
:1046000091F80320F8E72DE9F0471E46DDE9085848
:1046100017460C46814607F069F8E1B2484607F0B4
:1046200040F84146484607F096F8C8B1F9B2484606
:1046300007F037F84146484607F08DF880B1484604
:1046400007F054F8E0B240F00101484607F029F8BD
:104650004146484607F07FF810B100246F1E0DE078
:104660000320BDE8F087BC4201D0012100E0002119
:10467000484606F0C7FF3055641CA4B2AC42F2D3E2
:10468000484607F04FF80020EBE72DE9F0471D46BC
:10469000DDE9086814460F46814607F027F8F9B2AD
:1046A000484606F0FEFF4146484607F054F8E8B198
:1046B000E1B2484606F0F5FF4146484607F04BF8A0
:1046C000A0B100240AE0295D484606F0EAFF414611
:1046D000484607F040F848B1641CA4B2B442F2D393
:1046E000484607F01FF80020BDE8F0870320FBE7ED
:1046F00088B008F06FFD3D4E4FF47A77079002E0E6
:10470000384607F057FE306880470028F8D1DFF8B8
:10471000E0800025374C0121BA4688F8141004F1D6
:104720001000DFF8D4B0354F40F6B8390690326942
:104730003349304890471422059768460699FBF79D
:10474000D2FD94E80F00D6F814C0E0474D4500D2E2
:104750006D1C554544D194ED000A5846B0EEC00A90
:1047600010EE101A814216DA94ED010AB0EEC00A7A
:1047700010EE101A81420EDA94ED020AB0EEC00A71
:1047800010EE101A594506DA98F81E10491C88F8E0
:104790001E10B068804797ED010A1A48B0EEC00AB3
:1047A00010EE101A81420EDA97ED000AB0EEC00A40
:1047B00010EE101A814206DA98F81E10491C88F88B
:1047C0001E10F068804798F81E1002294FF0000173
:1047D00004D088F81E104FF4487501E088F81410D2
:1047E0000A2107A807F00CFEA1E700003401002011
:1047F0008C030020FCE40020CDCC4C3D44E500209F
:1048000020E500200000A040F0B587B004466427F2
:104810000C20784DCDE900070E462D22D5F818C0A2
:1048200004ABD0212846E047BDF81000112240BA61
:1048300000B200EE100A02ABB8EEC00A84ED030A23
:10484000BDF8120040BA00B200EE100AB8EEC00A7D
:1048500084ED040ABDF8140040BA00B200EE100A5C
:10486000B8EEC00A84ED050ABDF8160040BA00B2E1
:1048700000EE100AB8EEC00A84ED000ABDF8180078
:1048800040BA00B200EE100AB8EEC00A84ED010A88
:10489000BDF81A0040BA00B200EE100A0820182134
:1048A000B8EEC00A84ED020ACDE90007AF692846D8
:1048B000B8479DF80F00C0F3C005BDB9BDF90800A9
:1048C00000EE100AB8EEC00A84ED060ABDF90A002F
:1048D00000EE100AB8EEC00A84ED070ABDF90C001C
:1048E00000EE100AB8EEC00A84ED080A424894EDC2
:1048F000000A2422D0ED000A214630EE600A84ED41
:10490000000A94ED010AD0ED010A30EE600A84ED50
:10491000010A94ED020AD0ED020A30EE600A84ED3D
:10492000020A94ED030AD0ED030A30EE600A84ED2A
:10493000030A94ED040AD0ED040A30EE600A84ED17
:10494000040A94ED050AD0ED050A304630EE600AFF
:1049500084ED050AFBF7C7FC2748242221463030A6
:10496000FBF7C1FCD4ED030A9FED240A002D60EE95
:10497000800AC4ED030AD4ED040A60EE800AC4ED97
:10498000040AD4ED050A20EE800A84ED050AD4ED70
:10499000000A9FED1B0A94ED021A60EE801AD4ED16
:1049A000010A21EE001A60EE800A9FED160A61EE00
:1049B000801A60EE800A21EE000AC4ED001AC4EDF0
:1049C000010A84ED020A13D1D4ED060A9FED0E0A06
:1049D00060EE800AC4ED060AD4ED070A60EE800A94
:1049E000C4ED070AD4ED080A20EE800A84ED080A17
:1049F00007B0F0BD1401002050E50020CDCC1C3ADA
:104A000000007A3C35FA8E3C0020193E7FB500212B
:104A10001B48009101910291184A03910260012400
:104A20004FF400320461C0E90121047680F82010BF
:104A3000144AC0E90A210225C561C16080F83040EE
:104A40004461FCF7ACFA08B1FCF7FDF90C20CDE9A4
:104A500000040720029069460948FCF7F7F908B1FD
:104A6000FCF7F1F90D20CDE9000569460448FCF793
:104A7000EDF9002801D0FCF7E6F97FBD00200140E8
:104A8000FC0400200100000F0F4810B50D49016023
:104A90000C21416000214FF400328160C0E9031213
:104AA00012014261017641768176C17601774177C4
:104AB000FCF70FFD002803D0BDE81040FCF7C3B998
:104AC00010BD000000640040A40500200F4810B590
:104AD0000D4901600C21416000214FF400328160DA
:104AE000C0E9031212014261017641768176C176F6
:104AF00001774177FCF7EDFC002803D0BDE81040BA
:104B0000FCF7A1B910BD000000680040CC050020F2
:104B10001D4808B5016841F480010160016801F495
:104B200080010091016841F40011016000680022D9
:104B300000F40010009005210C20FDF723FB0C2051
:104B4000FDF712FB002205210F20FDF71BFB0F20B4
:104B5000FDF70AFB002205211120FDF713FB1120B0
:104B6000FDF702FB002205213820FDF70BFB382062
:104B7000FDF7FAFA002205214620FDF703FBBDE808
:104B800008404620FDF7F0BA303802402DE9FC47D6
:104B900000220121322007F00CFF304C304A002166
:104BA0006060304805F02EFF206104F108012820E4
:104BB000CDE900014FF48078002342462AA12D4818
:104BC00008F032FA012801D0FCF73DF9002417263D
:104BD000CDE900644FF4007723463A4626A12948E0
:104BE00008F022FA012801D0FCF72DF91825CDE9AB
:104BF00000540023B9463A4623A1254808F014FA88
:104C0000012801D0FCF71FF9CDE9005400234746E5
:104C1000424620A1234808F007FA012801D0FCF7FA
:104C200012F9CDE9005400234A461FA1224808F09A
:104C3000FBF9012801D0FCF706F9CDE90064002357
:104C40003A461EA1204808F0EFF9012803D0BDE83C
:104C5000FC47FCF7F8B8BDE8FC8700001000002016
:104C6000C4D50008016C0008536572766F546173F7
:104C70006B0000005168000873686F775461736BB4
:104C80000000000075BB0008496D755461736B002E
:104C9000F146000853657269616C436F6E5461732D
:104CA0006B000000916400087472616E736D69742A
:104CB0005F7461736B000000E16000085247425F5F
:104CC0007461736B00000000755700082DE9F04F08
:104CD00087B014216846FBF71FFB5D48002401687C
:104CE00041F010010160016801F0100105910168B7
:104CF00041F004010160016801F0040105910168BF
:104D000041F080010160016801F0800105910168B6
:104D100041F001010160016801F0010105910168A4
:104D200041F002010160016801F002010591016892
:104D300041F0080101600068002200F008000590C1
:104D400010214448FDF7AFF8DFF80C914FF46046AE
:104D5000002231464846FDF7A6F8DFF800A10122FF
:104D600030215046FDF79FF8012230214846FDF7DB
:104D70009AF84FF4C078012241463648FDF793F87F
:104D8000DFF8DCB0002210215846FDF78CF8012234
:104D900020215846FDF787F80122C0213148FDF750
:104DA00082F8102000900125CDE901546946294878
:104DB0000394FCF773FF0096CDE901546946484619
:104DC0000394FCF76BFF3027032600970396CDE989
:104DD000015469465046FCF761FF00970396CDE900
:104DE000015469464846FCF759FFCDF80080039608
:104DF000CDE9015469461748FCF750FF28038DE8B8
:104E0000310069464846FCF749FFC8208DE831006B
:104E100069465846FCF742FF0097CDE901546946C0
:104E200058460394FCF73AFFC020CDE90005CDE9D0
:104E3000024669460B48FCF731FFCDE9005469464C
:104E400004480295FCF72AFF07B0BDE8F08F000088
:104E500030380240001002400008024000000240CA
:104E6000000C02400004024010B588B01C216846C6
:104E7000FBF752FA154814490024016041F6BC11B1
:104E8000C0E90114FE21C0E903148461FDF7E0FCD0
:104E900008B1FBF7D8FF0D48FEF789F908B1FBF719
:104EA000D2FF6020CDE90004029400226946074841
:104EB0000494FEF716F908B1FBF7C5FF0348FEF7A7
:104EC000B5F808B010BD000000480140A40700205C
:104ED00010B58AB0002426480494059406940794DB
:104EE000089409940094019402944FF08041039433
:104EF00001605321C0E901144FF6FF71C0E90314AA
:104F00008461FDF7A5FC08B1FBF79DFF4FF48050CD
:104F1000049004A91648FDF72BFE08B1FBF793FF98
:104F20001348FDF737FF08B1FBF78DFF089408A978
:104F30000F480994FDF744FC08B1FBF784FF0120FA
:104F4000CDE9004002940022694609480394FDF728
:104F50008FFE08B1FBF777FF042269460448FDF78E
:104F600087FE002801D0FBF76EFF0AB010BD0000DD
:104F7000F405002010B58AB000242E48049405944E
:104F80000694079408940994009401940294284983
:104F9000039401605321C0E901144FF6FF71C0E989
:104FA00003148461FDF754FC08B1FBF74CFF4FF488
:104FB0008050049004A91F48FDF7DAFD08B1FBF703
:104FC00042FF1C48FDF7E6FE08B1FBF73CFF0894E2
:104FD00008A918480994FDF7F3FB08B1FBF733FF64
:104FE0000120CDE900400294002269461148039453
:104FF000FDF73EFE08B1FBF726FF042269460D4887
:10500000FDF736FE08B1FBF71EFF08226946094886
:10501000FDF72EFE08B1FBF716FF0C226946054886
:10502000FDF726FE002801D0FBF70DFF0AB010BDEA
:10503000000400403C06002010B58AB000242E4831
:105040000494059406940794089409940094019498
:1050500002942849039401605321C0E9011442F2EB
:105060000F71C0E903148461FDF7F2FB08B1FBF78F
:10507000EAFE4FF48050049004A91F48FDF778FD24
:1050800008B1FBF7E0FE1C48FDF784FE08B1FBF712
:10509000DAFE089408A918480994FDF791FB08B1B5
:1050A000FBF7D1FE0120CDE90040029400226946C1
:1050B00011480394FDF7DCFD08B1FBF7C4FE0422A0
:1050C00069460D48FDF7D4FD08B1FBF7BCFE082288
:1050D00069460948FDF7CCFD08B1FBF7B4FE0C2288
:1050E00069460548FDF7C4FD002801D0FBF7ABFE7B
:1050F0000AB010BD00080040840600201CB5002442
:105100000F4800940D490194016040F24731C0E915
:1051100001144FF6FF718461C160FDF799FB08B17E
:10512000FBF791FE0094694605480194FDF748FBA2
:10513000002801D0FBF787FE1CBD000000100040D6
:10514000CC06002010B596B000240F941094119452
:10515000129413941C2168461494FBF7DDF8202167
:1051600007A8FBF7D9F82C482A490160A721C0E914
:10517000011440F64621C0E9031444618461FDF73F
:1051800067FB08B1FBF75FFE4FF480500F900FA94B
:105190002148FDF7EDFC08B1FBF755FE1E48FEF770
:1051A00006F808B1FBF74FFE139413A91A4814949C
:1051B000FDF706FB08B1FBF746FE6020CDE90004D1
:1051C00002940394049405940022694612480694BC
:1051D000FDF787FF08B1FBF736FE042269460E484B
:1051E000FDF77FFF08B1FBF72EFE079408940994A2
:1051F0004FF400500A94CDE90B4007A906480E94DD
:10520000FDF7B4FA08B1FBF71EFE0348FDF70EFFE9
:1052100016B010BD000401401407002010B58CB07A
:1052200000240794089409941C2168460A94FBF70B
:1052300073F81E481C49016041F6BC11C0E9011415
:10524000FE21C0E903148461FDF702FB08B1FBF7FE
:10525000FAFD4FF48050079007A91448FDF788FC29
:1052600008B1FBF7F0FD1148FDF7A1FF08B1FBF70E
:10527000EAFD6020CDE900040294002269460B4853
:105280000494FDF72EFF08B1FBF7DDFD042269460B
:105290000648FDF726FF08B1FBF7D5FD0348FDF7EB
:1052A000C5FE0CB010BD0000004001405C070020AE
:1052B0000C4810B50A4901604FF4E131416000210A
:1052C00081600C22C160C0E904128161C161FEF7F6
:1052D0005BF9002803D0BDE81040FBF7B4BD10BD5A
:1052E000004C0040EC0700200C4810B50A49016052
:1052F0004FF4E1314160002181600C22C160C0E9BE
:1053000004128161C161FEF73FF9002803D0BDE8B6
:105310001040FBF798BD10BD00100140340800207C
:105320000C4810B50A4901604FF461314160002119
:1053300081600C22C160C0E904128161C161FEF785
:1053400023F9002803D0BDE81040FBF77CBD10BD59
:10535000004400407C0800200C4810B50A49016058
:105360004FF4E1314160002181600C22C160C0E94D
:1053700004128161C161FEF707F9002803D0BDE87E
:105380001040FBF760BD10BD00480040C40800207D
:10539000FEE7FEE730B40021084B0A465FF000004C
:1053A00003EBC004401CC0B262548028F8D3491CEF
:1053B000C9B20829F2D330BC00F09CB8BCDF002091
:1053C00010B57F2816D83F2914D80723A3EBD103A3
:1053D00001F00701C1F107040121A140064CDBB235
:1053E00004EBC000002AC25CC9B201D00A4300E04D
:1053F0008A43C25410BD0000BCDF002070B53C4D94
:105400004FF40054002221462846FCF74CFD64204E
:10541000FCF77EFB012221462846FCF744FD0021D3
:10542000AE2000F053F90021D52000F04FF9002103
:10543000502000F04BF90021A82000F047F900218E
:105440003F2000F043F90021D32000F03FF9002174
:10545000084600F03BF90021402000F037F9002118
:105460008D2000F033F90021142000F02FF90021E5
:10547000202000F02BF90021022000F027F9002164
:10548000A12000F023F90021C02000F01FF9002125
:10549000DA2000F01BF90021122000F017F900219A
:1054A000812000F013F90021EF2000F00FF9002116
:1054B000D92000F00BF90021F12000F007F90021BC
:1054C000DB2000F003F90021302000F0FFF800217C
:1054D000A42000F0FBF80021A62000F0F7F800213E
:1054E000AF2000F0F3F8BDE87040FFF753BF0000B5
:1054F0000008024070B5114E002400BF04F1B00056
:10550000C0B2002100F0E2F80021084600F0DEF809
:105510000021102000F0DAF85FF0000506EBC5006E
:105520000121005D00F0D2F86D1CEDB2802DF5D3A5
:10553000641CE4B2082CE1D370BD0000BCDF002085
:105540002DE9FF5F203A1F460C46894602F0FF0A0C
:105550000025DDF838B032E00C2F09D01A4901EBF4
:105560000A104FF00008465D300607D55A4609E09C
:1055700016490AEB4A0001EB8000F2E7BBF1000F8D
:1055800012D0002221460098FFF71AFF7006641C13
:10559000060EE4B2A4EB0900B84207D100984C46CD
:1055A000401CC0B2009008E00122EBE708F10100C6
:1055B00000F0FF08B8F1080FD6D36D1CEDB2BD4264
:1055C000CAD3BDE8FF9F00007CDA000808D60008B7
:1055D0002DE9FF4F81B00027DDF838901D46934636
:1055E00082463C464FF001084FEA59062BE0281B43
:1055F000401E0A22C1B2012000E05043491EC9B238
:10560000FBD2BBFBF0F00A21B0FBF1F201FB120070
:1056100027B9691E8C4201DA48B101273030C2B285
:1056200006FB04A0C0B24B46CDF8008006E006FBA6
:1056300004A0C0B24B462022CDF800800299FFF7AB
:105640007FFF641CE4B2AC42D1D305B0BDE8F08F5B
:105650002DE9F8431E46089F14008846054604D5E8
:10566000504204B207A2284600E007A200F00EF85C
:105670000A35E8B23346224641460097FFF7A8FFB5
:10568000BDE8F8832D0000002B000000F8B5164699
:105690000D460446012714E07A2C02D90024103567
:1056A000EDB23A2D03D900242546FFF773FE00978B
:1056B00032780C2329462046FFF742FF0834E4B233
:1056C000761C30780028E7D1F8BD00002DE9F047BE
:1056D000DFF86090054609B1012200E000221021A8
:1056E0004846FCF7E0FB144F00244FF480484FF489
:1056F0000046002231463846FCF7D5FB280601D586
:10570000012200E0002241463846FCF7CCFB012292
:1057100031463846FCF7C7FB6806641C050EE4B248
:10572000082CE6D34846BDE8F04701221021FCF7DB
:10573000BABB000000100240000802400148FCF71C
:10574000C9BB000034E6002010EE100AF6EE000A95
:10575000074960EE200AA1EB600000EE100AB7EEE8
:10576000081A60EE800A00EEC01A21EE000A7047A7
:10577000DF59375F08B507F02DFD2C4C00902068ED
:1057800080470022A3681146FF2098474FF47A759E
:10579000284606F00FFE0022A368FF211046984716
:1057A000284606F007FEFF220021A3680846984716
:1057B000284606F0FFFD1E4D00F0F4F9062830D211
:1057C000DFE800F003141921262D2878022802D0E2
:1057D000012805D025E0002211462020E36803E0DF
:1057E0000022E3682021104698471AE08022002119
:1057F0006420E368F8E780220021E6694FF4FA6349
:105800006420B0470DE000228021FF20E368EBE731
:105810000748E368401CC27881784078E4E7606814
:105820008047C821684606F0EBFDC5E7600100200F
:105830007C03002010B5012007F0B0F81049086083
:105840000846006808B900BFFEE700200D49C8708F
:1058500000210D48FDF7DAFC04210B48FDF7D6FCCA
:1058600000210A48FDF7D2FC002007490968886337
:1058700006490968486304490968486310BD000087
:105880005C010020BCE500205C070020A40700208C
:105890002DED028B00242AE000EE104AB8EE400AFB
:1058A000DFED200A80EE201AB0EE418A1E4908780A
:1058B000B0EE480A002104F015FD06461A49487862
:1058C000B0EE480A002104F00DFD0746164988781D
:1058D000B0EE480A002104F005FD804642463946F4
:1058E000304600F03FFA0A2006F064FD641C642C88
:1058F000D2D9002515E00DB9012000E000200546B1
:1059000035B1094B9A7A597A187A00F02BFA04E0EB
:1059100000221146104600F025FA0349086906F0F6
:1059200049FDE8E700004843BCE500202DED088B69
:1059300000242AE000EE104AB8EE400ADFED420AE9
:1059400080EE201AB0EE418A40490878B0EE480A4D
:10595000002104F0C7FC05463C494878B0EE480AEF
:10596000002104F0BFFC064638498878B0EE480AAA
:10597000002104F0B7FC07463A463146284600F0BD
:10598000F1F90A2006F016FD641C642CD2D959E006
:10599000002453E02D4890ED030AF8EE400A00EE93
:1059A000104AB8EE400A80EE201AB0EE418A9FED10
:1059B000280A28EE000A10EE101A0846FAF7FAFD37
:1059C00041EC1B0BB0EE4B0AF0EE6B0A02F058FEF6
:1059D000B0EE40AAF0EE60AA9FED1E0B53EC102B28
:1059E00051EC1A0BFAF74AFDFAF7CBFDC5B217488E
:1059F000807A10FB05F0FF2190FBF1F0C6B213484E
:105A0000407A10FB05F090FBF1F0C7B20F48007A26
:105A100010FB05F090FBF1F000F0FF08324639462C
:105A2000404600F09FF9094800694FF47A714843F5
:105A3000B0FBF1F6304606F0BDFC641C0348C068BC
:105A4000A042A7D2A4E7000000004843BCE5002024
:105A5000D00F49400000000000E06F402DED028BA8
:105A60000025002600242AE000EE104AB8EE400A85
:105A7000DFED240A80EE201AB0EE418A2249087830
:105A8000B0EE480A002104F02DFC07461E49487874
:105A9000B0EE480A002104F025FC80461A498878B7
:105AA000B0EE480A002104F01DFC81464A464146FA
:105AB000384600F057F90A2006F07CFC641C642C80
:105AC000D2D91EE0002413E00DB9012000E000202F
:105AD00005460DB9002000E0FF20064600221146D1
