:020000040800F2
:1000000048EE0020610200080F5600088D450008E8
:100010000D560008FD0C0008997A00080000000049
:10002000000000000000000000000000A101000826
:10003000450E000800000000FD010008A16E000848
:100040007B0200087B0200087B0200087B0200089C
:100050007B0200087B0200087B0200087B0200088C
:100060007B0200087B0200087B0200087B0200087C
:10007000310D00087B0200087B0200083D0D0008DE
:100080007B020008490D00087B0200087B02000883
:10009000010D00087B0200087B020008630E0008C7
:1000A0007B0200087B0200087B0200087B0200083C
:1000B000616F00086D6F0008796F00087B0200080F
:1000C0007B0200087B0200087B0200087B0200081C
:1000D0007B020008C1760008CD760008D9760008BA
:1000E000470E00087B0200087B0200087B02000824
:1000F0007B0200087B0200087B0200087B020008EC
:100100007B0200087B0200087B0200087B020008DB
:100110002D7300087B0200087B020008856F000831
:10012000550D00087B0200087B0200087B020008D6
:100130007B0200087B0200087B0200087B020008AB
:100140007B0200080D0D00087B020008B959000869
:100150007B0200087B020008610D00087B0200089A
:100160007B0200087B0200087B0200087B0200087B
:100170007B0200087B0200087B02000800000000F0
:100180007B0200087B020008DFF810D000F016FCAC
:10019000004800472DA70008AFF3008048EE00207C
:1001A0002C4B19680868B0E8F04F80F30988BFF35A
:1001B0006F8F4FF0000080F311887047000000003F
:1001C00008480068006880F308884FF0000080F35A
:1001D000148862B661B6BFF34F8FBFF36F8F00DF35
:1001E00000BF00BF08ED00E0DFF80C00016841F43B
:1001F00070010160704700BF88ED00E0EFF30980F7
:10020000BFF36F8F134B1A681EF0100F08BF20ED5D
:10021000108A20E9F04F106009B44FF0500080F3CD
:100220001188BFF34F8FBFF36F8F0CF0A5FB4FF01A
:10023000000080F3118809BC19680868B0E8F04F25
:100240001EF0100F08BFB0EC108A80F30988BFF3CE
:100250006F8F704740000020EFF30580704700006B
:100260000648804706480047FEE7FEE7FEE7FEE750
:10027000FEE7FEE7FEE7FEE7FEE7FEE7516F000858
:10028000890100082DE9F05F0546002092469B4653
:1002900088460646814640241BE02846414647469C
:1002A000224600F0DBF953465A46C01A914110D35A
:1002B00011461846224600F0C2F92D1A67EB0108D4
:1002C0004F4622460120002100F0B9F917EB000942
:1002D0004E41201EA4F10104DFDC484631462A4687
:1002E0004346BDE8F09F40EA01039B0703D009E0C5
:1002F00008C9121F08C0042AFAD203E011F8013B12
:1003000000F8013B521EF9D27047D2B201E000F86A
:10031000012B491EFBD270470022F6E710B51346A9
:100320000A4604461946FFF7F0FF204610BD2DE9A6
:10033000FE4F804681EA0300C00F0C46009021F07A
:10034000004123F00045B8EB0200A94105D2404628
:10035000214690461C460B46024623F000401043BF
:1003600047D0270DC7F30A00C3F30A510290401A81
:10037000019040286BDAC3F3130040F4801B00980F
:10038000924620B10023D2EB030A63EB0B0B0198DA
:100390005946C0F14002504600F051F906460D465C
:1003A00050465946019A00F069F910EB0800614186
:1003B000002487EA115284EAE7731A4340D0009A76
:1003C00062B3019A012A4FEA075215DC001B61EB68
:1003D00002014FF0004202EA0752CDE90042001C40
:1003E00041F5801132462B4600F0A0F903B0BDE87C
:1003F000F08F40462146F9E7001B61EB0201001C2B
:1004000041F5801300185B412018A2F5001747EB57
:10041000030140EAD570B6196D4111E06D084FEA4D
:10042000360645EAC0754FEA0752001B61EB020130
:10043000001C41F5801149084FEA30000019514174
:1004400032462B4603B0BDE8F04F00F060B900988B
:10045000012240000023D0EB020263EBE07300981E
:1004600021464FEAE074B8EB000061EB0401E9E7D4
:1004700083F000435BE781F0004158E72DE9FE4F30
:1004800081EA030404F0004421F0004100944FF09D
:10049000000B23F0004350EA01045ED052EA03044B
:1004A0005BD0C3F30A54C1F30A552C44A4F2F334CD
:1004B0000194A0FB0254C1F3130141F48011C3F372
:1004C000130343F4801301FB024400FB034E840A30
:1004D000970A44EA815447EA8357A4FB07680295C8
:1004E0008D0A05FB07854FEA932C04FB0C54270566
:1004F000029D4FEA065847EA1637B5EB08056EEB42
:10050000070C870E920E47EA811742EA8312A7FB77
:100510000201B6EB0B0164EB00042B0D43EA0C3334
:100520005E1844EB1C50DA465146E7FB0201C5F366
:1005300013044FEA0B3343EA14534FEA0432019C8D
:1005400043EA0603A4F10C040294009CCDE900B434
:1005500000F0ECF803B0BDE8F08F00200146F9E7A9
:100560000EB5C10F80EAE0700844CA07002140F2CE
:1005700033438DE80E000A460B4600F0D7F803B06F
:1005800000BDC1F30A5210B5C1F3130140F2FF33AD
:1005900041F480119A4201DA002010BD40F2334349
:1005A0009A42A2F2334203DC524200F057F810BDE7
:1005B000904010BD00F0004230F000400AD0C10D64
:1005C00001F56071C0F3160042EA0151C20840070C
:1005D0001143704700200146704701F0004330B4DA
:1005E00021F0004150EA010206D00A0DA2F5607226
:1005F000C1F31301002A02DC30BC00207047440F15
:1006000044EAC104C100E01830BC00EBC25000F065
:1006100047B830B50B46014600202022012409E0EE
:1006200021FA02F59D4205D303FA02F5491B04FAAB
:1006300002F52844151EA2F10102F1DC30BD202A8A
:1006400004DB203A00FA02F1002070479140C2F129
:10065000200320FA03F3194390407047202A04DB5B
:10066000203A21FA02F00021704721FA02F3D0402B
:10067000C2F120029140084319467047202A06DB48
:10068000CB17203A41FA02F043EAE07306E041FA60
:1006900002F3D040C2F1200291400843194670474E
:1006A0000029A8BF7047401C490008BF20F0010086
:1006B000704710B4B0FA80FC00FA0CF050EA010464
:1006C00004BF10BC704749B1CCF1200421FA04F4F6
:1006D00011FA0CF118BF012121430843A3EB0C01CF
:1006E000CB1D4FEA00614FEA102042BF002010BC32
:1006F000704700EBC35010440029A4BF10BC7047E2
:10070000401C490008BF20F0010010BC704710B524
:10071000141E73F1000408DA401C41F10001921824
:100720005B411A4301D120F0010010BD2DE9F04DCD
:1007300092469B4611B1B1FA81F202E0B0FA80F222
:1007400020329046FFF77BFF04460F4640EA0A003E
:1007500041EA0B0153465A46084313D0114653EA67
:10076000010019D0C8F140025046FFF777FF054657
:100770000E46504659464246FFF761FF084305D0F2
:10078000012004E020463946BDE8F08D00200543F5
:1007900046EAE0762C4337430A986305E40AA0EB67
:1007A00008000022FD0A44EA47540A3002D500201E
:1007B0000146E9E7010510196941DDE9084500191D
:1007C0006941BDE8F04DA2E72DE9F04D81EA03044F
:1007D00004F0004B21F0004514464FF0000A23F0CE
:1007E000004150EA050220D054EA01021DD0C5F3B1
:1007F0000A570246C5F31303C1F31300C1F30A56A7
:1008000040F4801543F48013A7EB0608101BD6466E
:1008100008F2FD3873EB050002D308F1010801E08E
:1008200092185B41B8F1000F03DA00200146BDE8E1
:10083000F08D00204FF48011064684460EE0171B11
:1008400073EB050705D3121B63EB050306434CEA64
:10085000010C49084FEA300092185B4150EA010749
:10086000EDD152EA030012D082EA040083EA0501C6
:10087000084305D0101BAB4106D20122002306E03D
:1008800000224FF0004302E06FF0010253101AEB18
:1008900006004CEB085110EB0A0041EB0B01BDE8E0
:1008A000F04DFFF734BF2DE9FE4FC3F30A5701F0B7
:1008B00000450024C1F30A56C3F31303C1F3130127
:1008C00043F4801312EB020AA64641F4801100950E
:1008D00043EB030CA7F1010B16E0B0EB0A0061EB50
:1008E0000C01071E71F1000707DA4FF00008D0EB8A
:1008F000080085F0004568EB0101171A73EB01074A
:10090000EBD3761E001849415E45F6DA50EA010243
:1009100009D0CDE900E5002213460296FFF706FF55
:1009200003B0BDE8F08F20460099F9E7C1F30A5201
:10093000C1F3130140F2FF3341F480119A4202DA0D
:1009400000200146704740F233439A42A2F23342FC
:1009500002DC5242FFF782BEFFF771BE30B5041EC3
:1009600071F1000404DB4FF00044404264EB0101EC
:10097000141E73F1000405DB1C464FF00043524285
:1009800063EB04038B4208BF824230BD30B5041EC6
:1009900071F1000404DB4FF00044404264EB0101BC
:1009A000141E73F1000405DB1C464FF00043524255
:1009B00063EB0403994208BF904230BD064C074DDB
:1009C00006E0E06840F0010394E80700984710341F
:1009D000AC42F6D3FFF7DCFBE4E4000804E50008D2
:1009E0002DE9F04D00231A461B1A8A4103DB002033
:1009F0000146BDE8F08DC1F30A52C1F3130141F481
:100A000080154FF0000BD10702D100186D41521E26
:100A10000027044640F2FF11384601EB620A3E46C9
:100A20008046024600204FF48011FFF717FEC219DE
:100A30007141BB1846EB0100B4EB030C75EB000CE5
:100A400004D3E41A65EB000517460E46241908F195
:100A500001006D4180463428E3DDF91946EB0600BC
:100A6000091BA84103D24FF0FF32134601E00022D8
:100A700013461BEB070046EB0A51BDE8F04DFFF7AC
:100A800046BE0EB540F2334102910021CDE900117E
:100A90000A460B46FFF74AFE03B000BD70B5C1F32E
:100AA0000A5201F000450024C1F3130140F2FF3364
:100AB00041F480119A4201DA002070BD40F23343C4
:100AC0009A42A2F2334203DC5242FFF7C7FD00E034
:100AD00090402C43F1D0404270BD70B58C1810F896
:100AE000015B15F0070301D110F8013B2A1106D173
:100AF00010F8012B03E010F8016B01F8016B5B1E8D
:100B0000F9D12B0705D40023521E0DD401F8013B67
:100B1000FAE710F8013BCB1A921C03E013F8015BD3
:100B200001F8015B521EF9D5A142D8D3002070BD57
:100B300010B50146806B026C12F0500F05D0026CAC
:100B4000D20626D500F046FA10BD016C41F40071C2
:100B5000016401688A6812F0405F17D1027EAAB969
:100B6000CA6A12F4700F02D08A6852050ED44A681D
:100B700022F020024A60016C21F480710164016C52
:100B8000C90403D4016C41F00101016400F020FAB2
:100B900010BD806BC26CBDE810400846104710B510
:100BA000806B40210164416C41F00401416400F01C
:100BB00011FA10BD10B5806B00F00BFA10BD0000EB
:100BC000464910B54A6822F440324A604A68436890
:100BD0001A434A6001684A6822F480724A600168D8
:100BE0004A68036942EA03224A6001684A6822F0BF
:100BF00040724A6001684A6883681A434A60016823
:100C00008A6822F400628A6001688A68C3681A43AD
:100C10008A60816A6FF07062D14201688A6822F04E
:100C200070628A6001688A680CD0836A1A438A609D
:100C300001688A6822F040528A6001688A68C36A43
:100C40001A4301E022F040528A6001688A6822F06B
:100C500002028A6001688A68037E42EA43028A606F
:100C600090F82010002901684A680FD042F4006211
:100C70004A6001684A6822F460424A6001684A6832
:100C8000174C436A04EB43331A4301E022F4006239
:100C90004A600168CA6A22F47002CA620168CA6ABC
:100CA000838B104C04EB03531A43CA6201688A68B1
:100CB00022F400728A6001688A6890F8303042EA53
:100CC00043228A6001688A6822F480628A6001682F
:100CD0008A68406942EA8020886010BD0023014094
:100CE00000E0FFFF0000F0FFA0220249024800F0F0
:100CF000E9B90000D8E3002018050020FEE7000055
:100D0000014800F004BB0000C0050020014800F0CD
:100D1000FEBA0000E8050020034610B50020024698
:100D200003E09C5C6040521C92B28A42F9D310BD31
:100D3000014800F097BD0000480A0020014800F07B
:100D400091BD000028090020014800F08BBD000083
:100D5000E8090020014800F085BD00006005002082
:100D6000014800F07FBD00008809002001681823B9
:100D7000CAB2103AB2FBF3F2054B6FF30901032A32
:100D80009B5CC36500D9091D81650846704700005A
:100D900024D8000810B5014600208B698A6A4FF0FC
:100DA000C07453B1B3F5005F15D072B1012A0CD0F5
:100DB000022A0AD0032A09D104E01AB1012A06D076
:100DC000022A03D1C96AC90100D5012010BDC96A30
:100DD000A142FAD010BD002AF7D0012AF2D0022A8F
:100DE000F3D0032AF3D010BD30B50468256825F48C
:100DF00080252560046863608368402B036803D006
:100E000099600068C26030BD9A600068C16030BD02
:100E10000148406870470000001000E00748006883
:100E200040F0807005490860002005494860084688
:100E3000006840F00100086070470000FCED00E031
:100E4000001000E0704710B503F0B6FA4FF40064EC
:100E5000A04201D103F092FB2046BDE8104000F013
:100E600045BF10B503F0A8FA4FF40074A04201D1B9
:100E700003F084FB2046BDE8104000F037BF72B697
:100E8000FEE7000078B50024009490F83C20012A89
:100E900019D0012280F83C200A6807230568092A36
:100EA00013D9EE680A3A02EB420293409E43EE6089
:100EB0000B788A680A3B03EB43039A400368DD68BA
:100EC0002A43DA6010E0022078BD2E6902EB42026C
:100ED00093409E432E610B788A6803EB43039A404C
:100EE00003681D692A431A614A681F23072A13D21F
:100EF00005686E6B521E02EB820293409E436E6346
:100F00000B790A885B1E92B203EB83039A40036855
:100F10005D6B2A435A6327E005680D2A12D22E6BB7
:100F2000D21F02EB820293409E432E630B790A8804
:100F3000DB1F92B203EB83039A4003681D6B2A43C5
:100F40001A6311E0EE6A0D3A02EB820293409E436F
:100F5000EE620B790A880D3B92B203EB83039A4051
:100F60000368DD6A2A43DA62164B0568144A9D421B
:100F700006D10D68122D03D1556845F480055560E2
:100F800005689D4218D10B68102B01D0112B13D18D
:100F9000536843F400035360096810290CD10A49CF
:100FA0000A4A0968B1FBF2F101EB8101490000E056
:100FB000491E00910029FBD180F83C40002078BDFB
:100FC00000230140002001403C00002040420F006F
:100FD00070477047704770B504004FF0000503D0AC
:100FE000206C002610B107E0012070BD204600F003
:100FF0001DF8666484F83C60206CC00610D4206C38
:1010000020F4885040F0020020642046FFF7D8FD0D
:101010006664206C20F0020040F00100206400E0D3
:10102000012584F83C60284670BD000070B586B08C
:10103000064614216846FFF76FF91D49306888425B
:1010400034D11C480025016841F4807101600068BA
:1010500000F48070059017481438016841F00401CD
:1010600001600068694600F0040005900C200090C3
:101070000320CDE90105104800F044FE104C0F4854
:10108000C4E900050015A560C4E903504000606193
:101090008000A0614011C4E907052046656200F0A8
:1010A000B1FC08B1FFF7EBFEB463A66306B070BDF8
:1010B0000020014044380240000802401064024011
:1010C00060050020F8B5044600200E46009094F814
:1010D0003C10012907D0012184F83C1021688B685D
:1010E000DB0702D011E00220F8BD8B6843F001035A
:1010F0008B604049404B0968B1FBF3F101EB4101C2
:1011000000E0491E00910029FBD121688B68DB05B6
:1011100003D58B6823F480738B6021688B68DB07B1
:101120005DD0236C40F20165AB4343F480732364CC
:101130004968490505D5216C21F4005141F48051DD
:101140002164216CC90404D5616C21F0060161643D
:1011500000E0606484F83C00A16B2948274DC86317
:10116000A16B28480864A16B2748C86421686FF008
:10117000220008602068416841F080614160206879
:10118000816841F4807181602168134632464C3198
:10119000A06B00F0A1FC68681C49C006206806D05E
:1011A000884224D1816811F0405F13D01FE088424B
:1011B000F8D0174A904203D1D1F80423D206F1D0D7
:1011C000144A904213D1D1F8041301F01F011029E1
:1011D000E8D30CE0816841F08041816007E0206C39
:1011E00040F010002064606C40F00100606400205A
:1011F000F8BD00003C00002040420F0000230140E9
:10120000310B0008B50B00089F0B000800200140BF
:101210000021014000220140704770B590F8204045
:10122000012C05D0022C03D0416A41F4802128E032
:10123000046809B32469A40720D04FF4D874056862
:1012400004EB01142D5915F00405956005682D591E
:101250001AD0ED08556005682C5904F00204D460DA
:101260004FF4DA74056804EB01142E5906F00F06EA
:10127000082E0CD308250DE0E468DCE7416A41F450
:1012800000114162012070BD6D0D1560E3E72D591D
:1012900005F00F05156105682D59C5F30725956102
:1012A00005682C59240C54614FF4DC72046802EB7D
:1012B0000112A4581C700468A458240A5C700468C5
:1012C000A458240C9C700468A258120EDA704FF4D3
:1012D000DE72046802EB0112A4581C710468A45861
:1012E000240A5C710468A458240C9C710468A258F8
:1012F000120EDA71006829B1016941F02001016123
:10130000002070BDC16841F02001C160F8E72DE9FF
:10131000F05F0546006800244669D0F804908768AD
:10132000D0F80CB0D0F810A0D0F81880F10748D051
:10133000F90714D001218160B80703D5284600F0D1
:1013400030FA0CE0780702D54FF4006407E0380764
:1013500002D54FF4805402E0284600F021FAF80547
:1013600016D529684FF480708860B80503D52846E3
:1013700000F019FA0CE0780502D544F4005407E0B7
:10138000380502D544F4804402E0284600F00AFA09
:10139000F80316D529684FF480308860B80303D568
:1013A000284600F002FA0CE0780302D544F4004429
:1013B00007E0380302D544F4803402E0284600F008
:1013C000F3F9300707D55FEACB6004D52968102010
:1013D00044F40074C86070074FF0080707D55FEA4F
:1013E0000B7004D52868C760284600F099F9B0074B
:1013F00006D52868C068800702D0284600F092F918
:10140000700607D55FEACA6004D52968102044F445
:1014100080640861B00607D55FEA0A7004D52868C1
:101420000761284600F0AEF9F00606D52868006985
:10143000800702D0284600F0A6F9B00308D55FEA7D
:10144000C96005D5296810204860284600F0A7F932
:10145000F00307D55FEA097004D52868476028467D
:1014600000F0A4F9300446D55FEA497040D5F00594
:1014700004D55FEAC87001D044F00104B00504D57A
:101480005FEA887001D544F00204700504D55FEA74
:10149000487001D544F00404300529D518F0700FC8
:1014A00026D008F07000402815D006DC102809D09E
:1014B00020280AD0302816D10AE050280ED0602803
:1014C00011D10EE044F008040DE044F010040AE0ED
:1014D00044F0200407E044F0400404E044F08004B9
:1014E00001E044F480742868816921F07001816111
:1014F000296804204860002C05D0686A204368628F
:101500002846FFF789FEBDE8F09F70B5040003D0C0
:1015100094F8200010B104E0012070BD204600F0D6
:1015200081F82068016841F00101016000F0F4FCDD
:101530000546052604E000F0EFFC401B0A2811D800
:1015400020684068C007F6D02068016821F00201D9
:10155000016000F0E1FC05460BE000F0DDFC401B03
:101560000A2806D9606A40F40030606284F820607E
:10157000D2E7206840688007EFD4207E01282068E9
:1015800001683DD021F080010160607E0128206863
:10159000016838D021F040010160A07E0128206858
:1015A000016833D021F020010160E07E012820682D
:1015B00001682ED041F010010160207F01282068D1
:1015C000016829D021F008010160607F01282068AE
:1015D000016824D021F004010160D4E9020108432C
:1015E000D4E90412114308436168491E0843216885
:1015F000C86100206062012084F82000002070BDD6
:1016000041F08001C0E741F04001C5E741F0200111
:10161000CAE721F01001CFE741F00801D4E741F01B
:101620000401D9E7F0B587B0044614216846FEF7F7
:1016300073FE364B3648DFF8D0E01968D4F800C0A6
:10164000334A03250226092710300024491CF4459B
:1016500022D11960012907D1016841F000710160B0
:10166000006800F000700590106840F008001060FD
:101670001068CDE9005600F00800CDE90470694615
:101680002448CDE9024500F03DFB0022052114204D
:1016900000F0ACFD142033E0DFF87CE0F44531D1FC
:1016A000D0F800C04CF0806CC0F800C0D0F800C08A
:1016B00001290CF0806CCDF814C0196007D10168C5
:1016C00041F000710160006800F000700590106842
:1016D00040F002001060106802AB00F002000590BC
:1016E0004FF44050CDE9000683E8B00069460B484E
:1016F00000F008FB00220521412000F077FD412089
:1017000000F066FD07B0F0BD006400402C00002032
:1017100030380240000C02400068004000040240E3
:101720007047000000B58DB00021009101916B461B
:1017300003AA0291FFF771FD00281DD1059880B919
:101740000399B1F5C17F0CD10C48006848B10A91EA
:10175000DDE90012CDE90B12022302AA0AA90BF05F
:101760008FFB0298002807D005494FF08050086091
:10177000BFF34F8FBFF36F8F0DB000BD240000206B
:1017800004ED00E0704700B589B000210791089191
:1017900007AB6A460121FFF740FD09B000BD704765
:1017A00070477047704770477047704770472DE922
:1017B000F0410446876D00F0AFFB064694F8350013
:1017C0000025022806D08020606584F8345001206E
:1017D000BDE8F0812068016821F0160101602068F1
:1017E000416921F080014161206C08B9A06C20B1F1
:1017F0002068016821F0080101602068016821F07B
:10180000010101600CE000F087FB801B052807D96F
:1018100020206065032084F8350084F83450D7E731
:1018200020680068C007EED194F85C103F20884023
:10183000B860012084F8350084F834500020C7E7F0
:1018400090F83510022903D08021416501207047AE
:10185000052180F835100068016821F00101016060
:10186000002070472DE9F84304464FF00009CDF8F9
:10187000009063484FF41651A56D0068B0FBF1F776
:101880002E6894F85C10082000FA01F131420FD064
:1018900021680A6852070BD50A6822F004020A6020
:1018A00094F85C108840A860606D40F001006065AD
:1018B00094F85C104FF0010808FA01F0304208D0AB
:1018C00021684969090604D5A860606D40F00200EE
:1018D000606594F85C1004208840304208D021688C
:1018E0000968890704D5A860606D40F00400606550
:1018F00094F85C1010208840304218D021680968A4
:10190000090714D5A86020680168490304D5006858
:10191000000308D5A16C07E00168C90503D401687C
:1019200021F008010160216C09B12046884794F834
:101930005C1020208840304231D021680968C906F7
:101940002DD5A86094F8350005282068016806D0D8
:10195000490347D5006800031DD4616C1CE021F0E9
:10196000160101602068416921F080014161206C0D
:1019700008B9A06C20B12068016821F0080101605D
:1019800094F85C103F208840A86084F8358084F883
:101990003490216D1FE0E16B09B120468847606DEE
:1019A00000282BD0606DC00714D0052084F83500C6
:1019B0002068016821F0010101600098401C00903E
:1019C000B84203D820680068C007F6D184F8358093
:1019D00084F83490E16C002910D001B02046BDE8B5
:1019E000F04308470168C905D5D4016821F010010A
:1019F000016084F8358084F83490CCE7BDE8F88342
:101A00003C0000202DE9F041044600F085FA06462E
:101A10005CB1022084F83500002584F83450206839
:101A2000016821F0010101600DE00120BDE8F081B5
:101A300000F072FA801B052805D92020606503207C
:101A400084F83500F2E720680068C007F0D122680A
:101A5000116820480140D4E901031843D4E9033652
:101A60003343184363691843A3691843E369184370
:101A7000236A18430843616A042903D1D4E90B138C
:101A800019430843106020684069666A20F0070126
:101A900030460E43012704280CD1A06A0643E06AB1
:101AA00040B12046FFF776F920B14020606584F808
:101AB0003570BAE7206846612046FFF757F994F879
:101AC0005C203F2191408160656584F8357000207D
:101AD000ACE700003F8010F02DE9F0410446866D30
:101AE00090F83400002501280DD0012084F834003E
:101AF00094F835700020012F07D084F834000225B7
:101B00002846BDE8F0810220FBE7022784F8357003
:101B100060652046FFF768F994F85C103F20884024
:101B2000B0602068016841F016010160206C20B1AE
:101B30002068016841F0080101602068016841F0F7
:101B400001010160DCE7000070B5044600F0E4F933
:101B50000546601C02D004480078044400F0DCF91B
:101B6000401BA042FAD370BD300000202DE9F04F99
:101B70000022DFF838B101264FF00F0906FA02F40F
:101B800001EA0403A3427DD122F003075F44D7F8A2
:101B9000088895074FEA157C09FA0CFA0AEA080545
:101BA000DFF80C81404502D14FF0000832E0DFF849
:101BB0000481404502D14FF001082BE0DFF8F880A6
:101BC000404502D14FF0020824E0DFF8F0804045A4
:101BD00002D14FF003081DE0DFF8E480404502D158
:101BE0004FF0040816E0DFF8DC80404502D14FF0EA
:101BF00005080FE0DFF8D080404502D14FF006081D
:101C000008E0DFF8C880404502D14FF0070801E046
:101C10004FF0080808FA0CF8A84522D12C4DD5F849
:101C200000C02CEA030CC5F800C005F1040CDCF878
:101C300000509D43CCF80050254D0C35D5F800C020
:101C40002CEA030CC5F800C02D1FD5F800C02CEA03
:101C5000030CC5F800C0D7F8085825EA0A05C7F8EC
:101C60000858056857000323BB409D430560D5080D
:101C700000EB8505D5F820C057074FEAD76809FA69
:101C800008F700E00CE02CEA070CC5F820C0C56896
:101C90009D43C5604568A543456084689C43846056
:101CA000521C102AFFF46AAFBDE8F08F00300140EB
:101CB000000002400004024000080240000C024004
:101CC000001002400014024000180240001C0240B4
:101CD000003C014004490A88904204D18868401CB5
:101CE000886002F01DBC7047F8040020044910B55C
:101CF0000A68024202D00860FFF7ECFF10BD000046
:101D0000143C01402DE9F84FDFF8BCA10022012569
:101D100003264FF00F090AF1040BAAF1040E00BFCD
:101D20000B6805FA02F42340A34270D10F7907F043
:101D30000307012F01D0022F16D187684FEA42080E
:101D400006FA08FC27EA0C07D1F80CC00CFA08FCCC
:101D50004CEA070CC0F808C04768A7430C79C4F3E5
:101D6000001494403C4344600C79E443A4070AD037
:101D7000C4684FEA420C06FA0CF7BC438F6807FAB6
:101D80000CF72743C7600C7904F00304022C12D12E
:101D9000D40800EB840CDCF820405707FF0E09FA4A
:101DA00007F824EA0804D1F8108008FA07F848EA8E
:101DB0000408CCF8208004684FEA420C06FA0CF7BD
:101DC000BC430F7907F0030707FA0CF727430760B6
:101DD0004C6814F4403F70D03C4C276847F480476F
:101DE0002760246822F0030704F480440094384CF0
:101DF00007EB040CDCF8084897074FEA177809FA54
:101E000008F7BC43334FB84202D1002724E054E026
:101E1000314FB84201D101271EE0304FB84201D105
:101E2000022719E02E4FB84201D1032714E02D4FAD
:101E3000B84201D104270FE02B4FB84201D105274A
:101E40000AE02A4FB84201D1062705E0284FB842E0
:101E500001D1072700E0082707FA08F72743CCF845
:101E60000878DAF800405746D1F804C09C435FEA8E
:101E7000CC2C00D51C433C60DBF800405F46D1F819
:101E800004C09C435FEA8C2C00D51C433C60DEF808
:101E900000407746D1F804C09C435FEA8C3C00D5F3
:101EA0001C433C60084F083F3C68D1F804C09C4389
:101EB0005FEACC3C00D51C433C60521C102AFFF466
:101EC0002FAFBDE8F88F0000083C014044380240C5
:101ED00000300140000002400004024000080240BF
:101EE000000C0240001002400014024000180240A2
:101EF000001C02400069084000D001207047426980
:101F000021EA02030A4043EA0241816170470AB1B3
:101F1000816170470904FBE7014880687047000051
:101F200030000020D0F8DC0305F0F4BBD0F8DC036F
:101F300005F005BCD0F8DC0305F031BC2DE9F0411B
:101F400006680446304605F090FC012877D12068E9
:101F500005F021FD002872D0206805F01CFD8002EC
:101F600003D521684FF400104861206805F013FD87
:101F7000C00203D521684FF480104861206805F045
:101F80000AFD400103D521684FF080604861206858
:101F900005F001FD800702D5216802204861206814
:101FA00005F0F9FC800018D521684FF00050486119
:101FB000D6F84004C00710D11021304605F037FC98
:101FC000304605F018FC607A022803D10121206810
:101FD00005F0BDFC2046FFF7A9FF206805F0DBFCFB
:101FE000C00102D5204602F09AF8206805F0D3FC23
:101FF000000705D5204600F04AF82168082048610E
:10200000206805F0C8FC800124D5206805F09BFC01
:10201000074600254FF0010815E000BF05F00F014D
:1020200008FA01F038420DD006EB4510D0F8000553
:10203000E9B20004204603D501F042FD02E01CE0B5
:1020400001F0FCFE6D1C6079A842E7D821684FF0D2
:1020500000704861206805F09EFCC043C0060CD4A7
:102060002068816921F010018161204602F0A1F809
:102070002068816941F010018161BDE8F081D0F8EC
:10208000DC0305F09BBBD0F8DC0305F09BBBD0F86C
:10209000DC0305F075BB10B5044690F8D4030128A5
:1020A00009D0012084F8D403206805F097FC0020B3
:1020B00084F8D40310BD022010BD000002488168DE
:1020C0000278114481607047300000200B4810B541
:1020D000016841F400710160016841F480610160B0
:1020E000016841F480710160032000F09FF80F2027
:1020F00000F006F800F050F8002010BD003C02404F
:1021000030B505461F4887B00024016841F0200122
:102110000160006806A900F02000009001A800F00E
:1021200031F90498A8B100F04DF940001649174A5A
:10213000B0FBF1F11648491E026040F2E732C0E9F7
:102140000324C0E90114846100F0B6FB040003D04D
:1021500015E000F037F9E9E70D4800F0FDFC040058
:102160000DD1372000F034F8102D07D20022294677
:10217000372000F03BF80748056000E0012407B075
:10218000204630BD4038024040420F00001400405D
:10219000A80A0020340000200C4882B0016841F4F5
:1021A00080410160006800F4804000900748001FF3
:1021B000016841F0805101600068002200F0805009
:1021C00000900F21901E02B000F010B84438024079
:1021D000002809DB00F01F02012191404009800026
:1021E00000F1E020C0F8001170470000F0B40E4B81
:1021F0001B680C46C3F30223C3F10705042D00D965
:102200000425191D072901D2002300E0DB1E012649
:1022100006FA05F1491E214099409E40761E16405F
:102220003143F0BC05F0B9BC0CED00E0064900F00C
:10223000070208684FF6FF03184040EA0220034AED
:1022400010430860704700000CED00E00000FA0544
:102250002DE9F0470E46050065D0DFF81481D8F867
:102260000000F7B200F00700B04207D288F8007013
:10227000D8F8000000F00700B04254D128683D4C67
:10228000810712D5400703D5206840F4E050206054
:102290002878000703D5206840F46040206020685B
:1022A000A96820F0F000084320602878C0072DD0EE
:1022B000304968680839012812D0022813D0032851
:1022C00011D00968890700292DDA216821F003015E
:1022D00001432160FFF720FE814641F2883A0EE07B
:1022E00009688903EFE709688901ECE7FFF714FE45
:1022F000A0EB0901514502D90320BDE8F087206811
:10230000696800F00C00B0EB810FEFD1D8F8001035
:10231000404601F00701B14207D90770006800F09C
:102320000700B04201D00120E7E72878400705D533
:102330002068E96820F4E05008432060287800070E
:1023400006D52068296920F4604040EAC100206079
:1023500000F058F82168084AC1F30311515CC840E5
:102360000649086006480068FFF7CAFE0020C4E777
:10237000003C0240083802402CD800083C000020F5
:10238000340000200F2202600C4A136803F003039C
:102390004360136803F0F0038360136803F4E053B1
:1023A000C36012684FF4E05303EAD20202610448AA
:1023B000006800F00700086070470000083802401D
:1023C000003C02400448054900680968044AC1F31A
:1023D0008221515CC84070473C0000200838024010
:1023E0003CD800080448054900680968044AC1F35C
:1023F0004231515CC84070473C0000200838024020
:102400003CD80008154810B5006810F00C021448BC
:1024100013D04110042A0FD0082A0ED10F4C241FCC
:102420002268236802F03F025B0207D52068C0F3F0
:102430008810A0FB010106E0084610BD2168C1F329
:102440008811A1FB00010023FDF71CFF2168C1F3E7
:102450000141491C4900B0FBF1F010BD08380240B1
:102460000024F4002DE9F84F04006ED02078DFF846
:102470004C93C007A9F104054AD009F10400016892
:10248000C1F38101012908D00068C0F3810002284E
:102490000AD1D9F80000400206D52868800337D554
:1024A00060680028E1D033E06068B0F5803F10D06C
:1024B000B0F5A02F286810D020F48030286028685C
:1024C00020F4802028606068A8B1FFF725FD06464B
:1024D0000DE0286840F48030F4E740F48020286064
:1024E000F7E700BFFFF718FD801B642873D8286842
:1024F0008003F7D50CE0FFF70FFD064605E000BFAF
:10250000FFF70AFD801B6428F0D828688003F7D401
:102510002078DFF8AC8280074FF0000A3ED5A7484C
:10252000001D016811F00C0F08D00068C0F3810095
:1025300002280BD1D9F80000400207D42868800790
:1025400016D5E068012800D112E033E1E068B8B1A7
:102550000120C8F80000FFF7DFFC064605E000BFD9
:10256000FFF7DAFC801B0228C0D828688007F7D55F
:102570002868216920F0F80040EAC10028600DE0D9
:10258000C8F800A0FFF7C8FC064604E0FFF7C4FC4B
:10259000801B02281FD828688007F7D420780007FE
:1025A00022D5864F87486169703771B1012101607A
:1025B000FFF7B2FC064604E0FFF7AEFC801B0228E2
:1025C00009D838688007F7D50EE0C0F800A0FFF7FB
:1025D000A3FC064605E082E0FFF79EFC801B022874
:1025E0007DD838688007F7D42078400768D5DFF8B1
:1025F000CCB100270BF13C0BDBF80000C0000BD482
:10260000DBF8001041F08051CBF80010DBF800003F
:10261000012700F0805000906B4E3068C00510D448
:10262000306840F480703060FFF776FC009005E081
:10263000FFF772FC0099401A022850D83068C00594
:10264000F6D55E4EA0686C3601280FD0052830689C
:1026500010D020F001003060306820F004003060BD
:10266000A068B8B1FFF758FC00900FE0306840F068
:102670000100F4E740F004003060F7E7FFF74CFC9E
:102680000099411A41F28830814266D8306880074B
:10269000F4D50EE0FFF740FC009007E0FFF73CFCAC
:1026A0000099411A41F28830814256D8306880073B
:1026B000F4D42FB1DBF8001021F08051CBF80010DA
:1026C000A069C8B33D49091D0968C1F38101022908
:1026D0004AD00228504607D0C8F8600000E03CE02D
:1026E000FFF71AFC04463BE04746C8F86000FFF7D6
:1026F00013FC064605E000BFFFF70EFC801B022816
:102700002BD828688001F7D4D4E907010843A16ACF
:102710002E4A490802EB0141626A41EA82110843EC
:1027200094F82C1040EA0161C9F8001001203866C5
:10273000FFF7F2FB044606E03EE000BFFFF7ECFBCC
:10274000001B022809D828688001F7D534E000BFB3
:10275000FFF7E2FB001B022802D90320BDE8F88F37
:1027600028688001F4D427E00128F7D0D9F80000C8
:10277000E26900F4800191421CD1226A00F03F011D
:10278000914217D147F6C071626A0140B1EB821FD6
:1027900010D1A26A4FF0FF3300F4403103EB520234
:1027A000B1EB024F06D194F82C1000F07060B0EB42
:1027B000016F01D00120D1E70020CFE704380240AB
:1027C00000004742800E4742007000400000FFFFBB
:1027D0007047704710B590F83C20012A22D00122A2
:1027E00080F83C20CA688C6822F4407222434C680E
:1027F00022F4806222430C6822F4006222430C69B6
:1028000022F4805222434C6922F400522243C969C7
:10281000002322F480420A4301684A6480F83C3075
:10282000002010BD022010BD70B590F83C20012A98
:1028300032D0012480F83C40022280F83D20036819
:102840005A689D6822F070060A6832435A60134B3A
:1028500002689A4214D0B2F1804F11D0104B9A42C4
:102860000ED0104B9A420BD00F4B9A4208D00F4B10
:102870009A4205D00E4B9A4202D00E4B9A4204D196
:10288000496825F080031943916080F83D4000219C
:1028900080F83C10084670BD022070BD0000014069
:1028A0000004004000080040000C0040000401400B
:1028B000004001400018004010B5040003D094F817
:1028C0003D0010B107E0012010BD002084F83C005D
:1028D000204600F01FF8022084F83D00211D2068EA
:1028E00004F056FB012084F8460084F83E0084F88A
:1028F0003F0084F8400084F8410084F8420084F8E6
:10290000430084F8440084F8450084F83D0000202A
:1029100010BD0000F0B587B0044614216846FDF7ED
:10292000FBFC654A236800256349103A032602240C
:102930006248B3F1804F35D0614FBB4252D10B6832
:1029400043F002030B60096801F002010591116870
:1029500041F001011160116801F001010591116858
:1029600041F002011160116801F002010591C021DE
:102970008DE83200CDE903546946FFF7C3F90096AC
:10298000CDE90145CDE9035469464E48FFF7BAF950
:10299000002205211D20FFF729FC1D20FFF718FC50
:1029A00007B0F0BD0B6843F001030B60096801F04C
:1029B00001010591116841F0010111601168009653
:1029C00001F001010591CDE901450121CDE9035156
:1029D0006946FFF797F9002205211C20FFF706FC46
:1029E0001C20DBE73848834236D1086840F00400F9
:1029F0000860086800F004000590106840F00800C6
:102A000010601068314E00F0080005904FF44050FF
:102A10008DE83100CDE9035469463046FFF772F97D
:102A20004FF400408DE83100CDE90354694630464B
:102A3000FFF768F94FF48040CDE90004CDE9024585
:102A4000694630460494FFF75DF9002205211E20F7
:102A5000FFF7CCFB1E20A1E71D48834207D1086881
:102A600040F010000860086800F010000BE0124809
:102A70001849001D8B4208D1016841F00201016034
:102A8000006800F0020005908AE713498B4207D1E5
:102A9000016841F480310160006800F48030F2E7A1
:102AA0000E498B42F0D1016841F480210160006839
:102AB00000F48020E7E700004038024000000240B8
:102AC000000400400004024000080040000C0240E6
:102AD0000010004000040140004001400048014057
:102AE00090F83D10012901D001207047022180F8A3
:102AF0003D1000681149884214D0B0F1804F11D0C8
:102B00000F4988420ED00F4988420BD00E498842A7
:102B100008D00E49884205D00D49884202D00D499F
:102B2000884204D1816801F00701062903D00168B9
:102B300041F00101016000207047000000000140E9
:102B40000004004000080040000C00400004014068
:102B5000004001400018004090F83D10012901D0CC
:102B600001207047022180F83D100168CA6842F0D8
:102B70000102CA6000681149884214D0B0F1804F48
:102B800011D00F4988420ED00E4988420BD00E4911
:102B9000884208D00D49884205D00D49884202D0AC
:102BA0000C49884204D1816801F00701062903D04D
:102BB000016841F001010160002070470000014000
:102BC0000004004000080040000C004000040140E8
:102BD000004001400018004070B5044690F83C00E9
:102BE0000025012817D0012684F83C60022084F8D3
:102BF0003D002068826822F0770222F47F428260E2
:102C00000868502838D00DDC20284FD005DC90B360
:102C1000102811D14AE0022070BD302846D040284B
:102C20000AD13BE060282FD070280DD0B0F5805F2E
:102C300003D0B0F5005F12D0012584F83D6000207C
:102C400084F83C00284670BDCB68D1E9012120689A
:102C500004F017FA2068816841F0770109E0CB6839
:102C6000D1E90121206804F00CFA2068816841F460
:102C700080418160E1E719E0CA684968206804F092
:102C8000D5FA5021206806E0CA684968206804F037
:102C90001FFB6021206804F0FEF9CEE7CA6849688E
:102CA000206804F0C3FA40212068F4E72268014656
:102CB0001046F0E710B504460AF09CFB022807D145
:102CC0000448844204D12046BDE8104004F098B87E
:102CD00010BD0000A00600202DE9F041054690F847
:102CE0003C0000260C46012810D0012085F83C004D
:102CF00072B1042A1CD0082A2CD00C2A50D00126EC
:102D0000002085F83C003046BDE8F0810220FBE75A
:102D1000D4E90012E368286804F09AFA2868816907
:102D200021F00C01816128688169A26811430FE0DC
:102D3000D4E90012E368286804F0DCFA28688169A5
:102D400021F44061816128688169A26841EA022119
:102D50008161D5E72868D4E9002C277B036A016AE2
:102D600021F480710162C16923F4206321F0030121
:102D700041EA0C0121F0F00C39074FF420674CEACE
:102D8000116107EA02221A43C16102622868C1691F
:102D900021F00C01C1612868C169A26811432BE0D0
:102DA0002868D4E90021E768036AD0F820C02CF431
:102DB000805CC0F820C0D0F81CC023F420432CF461
:102DC000407C4CEA012121F4704C4FF6FF7101EA7E
:102DD00007314FF4204741EA0C0107EA02321A4357
:102DE000C16102622868C16921F44061C16128683B
:102DF000C169A26841EA0221C16181E710B50400FE
:102E000003D094F83D0010B107E0012010BD002070
:102E100084F83C00204600F01EF8022084F83D00B3
:102E2000211D206804F0B4F8012084F8460084F8DD
:102E30003E0084F83F0084F8400084F8410084F8A4
:102E4000420084F8430084F8440084F8450084F884
:102E50003D00002010BD704730B50446002551B13B
:102E600004290DD0082910D094F8410094F8452089
:102E7000012811D10EE094F83E0094F84220F7E7C3
:102E800094F83F0094F84320F2E794F8400094F857
:102E90004420EDE7012A01D0012030BD022059B1C4
:102EA000042912D0082919D084F8410084F845007B
:102EB0000C2944D0012540E084F83E0084F842000B
:102EC0002068C26842F0020210E084F83F0084F8F3
:102ED00043002068C26842F0040207E084F8400022
:102EE00084F844002068C26842F00802C2600122EF
:102EF000206804F0B9F814492068884214D0B0F171
:102F0000804F11D0114988420ED0114988420BD010
:102F10001049884208D01049884205D00F4988429C
:102F200002D00F49884204D1816801F007010629C7
:102F300003D0016841F001010160284630BD2068DE
:102F4000C26842F01002D1E70000014000040040D6
:102F500000080040000C0040000401400040014017
:102F6000001800402DE9F04104460068C668056974
:102F70004FF00007A90713D5B10711D5F91E01615C
:102F800001202077206880698007204602D0FFF763
:102F900091FE04E000F0D8F8204600F06AF92777A7
:102FA000680716D5700714D521686FF00400086112
:102FB000022020772068806910F4407F204602D0EC
:102FC000FFF778FE04E000F0BFF8204600F051F96A
:102FD0002777280715D5300713D521686FF008002B
:102FE0000861042020772068C0698007204602D04D
:102FF000FFF760FE04E000F0A7F8204600F039F982
:103000002777E80616D5F00614D521686FF0100072
:103010000861082020772068C06910F4407F2046AE
:1030200002D0FFF747FE04E000F08EF8204600F0E3
:1030300020F92777E80708D0F00706D021686FF05D
:1030400001000861204600F079F9280608D530060D
:1030500006D521686FF0800008612046FFF7B8FBB5
:10306000680608D5700606D521686FF04000086133
:10307000204600F082F9A8060AD5B00608D52168D6
:103080006FF0200008612046BDE8F041FFF7A1BBCA
:10309000BDE8F08130B587B0044614216846FDF7DD
:1030A0003BF92468214D0020214902220323AC4230
:1030B00010D10C6844F004040C60096801F00401AC
:1030C0000591C0210091CDE90120CDE903036946B6
:1030D000184812E0184DAC4213D10C6844F01004AB
:1030E0000C60096801F01001059160210091CDE9A3
:1030F0000120CDE9030369461048FEF703FE07B03F
:1031000030BD0F4DAC42FAD10C6844F002040C60A3
:10311000096801F00201059169150091CDE90120CE
:10312000CDE9030369460748E7E7000000040140D2
:1031300030380240000802400040014000100240C8
:103140000048014000040240704770B5044690F802
:103150003C0000260D4601280FD0012084F83C00D9
:103160006AB1042A1DD0082A2FD00C2A3FD001268C
:10317000002084F83C00304670BD022070BD2068FD
:1031800003F092FF2068816941F0080181612068A5
:10319000816921F004018161206881692A691143F4
:1031A00011E0206803F0B0FF2068816941F40061FC
:1031B00081612068816921F4806181612068816971
:1031C0002A6941EA02218161D2E7206803F0D2FF37
:1031D0002068C16941F00801C1612068C16921F01E
:1031E0000401C1612068C1692A69114311E02068A6
:1031F00003F0F4FF2068C16941F40061C1612068F7
:10320000C16921F48061C1612068C1692A6941EA0C
:103210000221C161ACE710B5040003D094F83D0071
:1032200010B107E0012010BD002084F83C002046CA
:1032300000F01EF8022084F83D00211D206803F0F4
:10324000A7FE012084F8460084F83E0084F83F0081
:1032500084F8400084F8410084F8420084F8430078
:1032600084F8440084F8450084F83D00002010BD37
:103270007047704710B50446022249B104290ED0A8
:10328000082913D094F84100012816D0012010BD60
:1032900094F83E000128F9D184F83E200FE094F81C
:1032A0003F000128F2D184F83F2008E094F8400064
:1032B0000128EBD184F8402001E084F8412001226C
:1032C000206803F0D1FE16492068164A884201D0D2
:1032D000904203D1436C43F4004343642068884226
:1032E00013D0B0F1804F10D00F4988420DD00F4954
:1032F00088420AD00E49884207D0904205D00D4935
:10330000884202D00C49884204D1816801F007014B
:10331000062903D0016841F001010160002010BDC1
:10332000000001400004014000040040000800408B
:10333000000C0040004001400018004000680349B4
:10334000884201D1FEF7BABE704700000014004069
:103350000246002041B1042909D008290AD00C29CD
:1033600001D11068006C70471068406B704710689E
:10337000806B70471068C06B70477047704770472C
:10338000F8B5016804460868CA684B6910F00F0F69
:103390004FF0000559D003F0010602F4907737434F
:1033A00065D0C10705D0D10503D5616C41F001019D
:1033B0006164410705D5D90703D0616C41F0020172
:1033C0006164810705D5D90703D0616C41F0040120
:1033D0006164010707D502F02001314303D0616C1D
:1033E00041F008016164616C00293AD0800604D57F
:1033F000900602D5204604F027F820684069616CE9
:10340000C0F38010090700D460B3204603F0E7FF43
:1034100020684069400621D52068143050E8001F1C
:1034200021F0400140E80012002AF5D1E06BA8B17C
:103430006E490165E06BFEF703FA002811D0E06BDE
:10344000016D01B0BDE8F040084783060FD5930633
:103450000DD52046BDE8F84003F0F6BF2046FFF743
:103460008EFFF8BD2046FFF78AFF6564F8BD266B26
:103470002023012E7DD1C6067BD5D60679D50868D6
:103480004868009048694FF00206400641D5E16B5C
:10349000086840680004000CE8D0A28D8242E5D99B
:1034A000E085C869B0F5807F2DD020680C3050E8E9
:1034B000001F21F4807140E80012002AF5D1206835
:1034C000143050E8001F21F0010140E80012002AEA
:1034D000F5D12068143050E8001F21F0400140E889
:1034E0000012002AF5D184F84230256320680C30A0
:1034F00050E8001F21F0100140E80012002AF5D129
:10350000E06BFEF754F96663A08DE18D401A81B23D
:103510002AE0A08DE18D401A81B2E08D0028A5D06F
:103520000029A3D022680C3252E8000F20F49070DA
:1035300042E80007002FF5D12068143050E8002F32
:1035400022F0010240E80027002FF5D184F8423034
:10355000256320680C3050E8002F22F0100240E86C
:103560000023002BF5D166632046FFF707FFF8BD67
:10357000FFE705062BD5150629D594F8410021282B
:10358000F5D1A068B0F5805F01D12069B0B1206AA3
:10359000411C2162216800784860E08C401E0004D4
:1035A000000CE084E3D12068C16821F08001C16093
:1035B0002068C16841F04001C160D8E7206A0088F6
:1035C000C0F308004860206A801C2062E5E74006DE
:1035D000CDD55006CBD5CA68204622F04002CA603D
:1035E00084F8413000F06AFAC1E70000397300083E
:1035F00070B5040004D094F84100002510B106E035
:10360000012070BD84F84050204600F023F82420AB
:1036100084F841002068C16821F40051C16020464F
:1036200003F074FF2068016921F490410161206872
:10363000416921F02A0141612068C16841F40051CB
:10364000C1606564202084F8410084F8420065630D
:10365000002070BD2DE9F04F87B005461421684663
:10366000FCF75AFE9448DFF84C8210380221D5F856
:1036700000C00024904B03228E0607154FF4406BC8
:103680004FF0400AC4453ED1D3F800C04CF4002CA2
:10369000C3F800C01B6803F400230593036843F0DC
:1036A000040303600068CDF800B000F0040005904A
:1036B000CDE901140820CDE9032069467F48FEF7D3
:1036C00021FBDFF800827E494046C0E90347C8F885
:1036D0001440C8F81840C8F81C40C8F8204088E8D2
:1036E0004204C8F82440FEF78DF908B1FDF7C7FB86
:1036F000C5F83880002205213420C8F83850FEF77C
:1037000075FD342048E0DFF8C081DFF8C0E14FF0FC
:103710000709C44545D1684B1B1DD3F800C04CF0C8
:10372000100CC3F800C01B6803F010030593036876
:1037300043F001030360006800F0010005904FF4BE
:10374000C0608DE81300CDE9032969467046FEF795
:10375000D9FADFF870815E4908F160084046C0E997
:103760000347C8F81440C8F81840C8F81C40C8F807
:10377000204088E84204C8F82440FEF743F908B125
:10378000FDF77DFBC5F83880002205212520C8F80B
:103790003850FEF72BFD2520FEF71AFD07B0BDE8D7
:1037A000F08FDFF83081C4453FD1D3F800C04CF42E
:1037B000003CC3F800C01B6803F4003305930368A2
:1037C00043F001030360006800F0010005900C2045
:1037D0008DE81300CDE9032969467046FEF792FA99
:1037E000DFF8E080364908F1C00840463031C0E9D2
:1037F0000347C8F81440C8F81840C8F81C40C8F877
:10380000204088E84204C8F82440FEF7FBF808B1DD
:10381000FDF735FBC5F83880002205212620C8F8C1
:103820003850FEF7E3FC2620B6E7DFF8AC80C4454D
:10383000B4D1D3F800C04CF4802CC3F800C01B688E
:1038400003F480230593036843F0020303600068D8
:10385000CDF800B00392CDE9011400F00200CDE9EB
:10386000049069461D48FEF74DFA1549DFF870804F
:1038700048394046C8F80010C0E90164C0E9034770
:10388000C8F81440C8F81840C8F81C40C8F82040D0
:10389000C8F82440FEF7B6F808B1FDF7F0FAC5F80D
:1038A0003C80002205212720C8F83850FEF79EFCF6
:1038B000272071E7004C00404038024000080240D9
:1038C0007060024028090020001001400000024002
:1038D000B864024000440040004800400004024038
:1038E000480A002090F84230202B01D00220704777
:1038F00021B11AB10023036303F08EBE012070478B
:1039000008B5002100911C4988420BD11B48006872
:1039100020B100236A461A4909F0B2FA0122184977
:1039200015481BE0174988420BD11748006820B1A1
:1039300000236A46154909F0A3FA012213491148E8
:103940000CE01349884203D101221249104805E0D6
:10395000114988420FD1012210490F48FFF7C2FFD9
:103960000098002807D00E494FF080500860BFF340
:103970004F8FBFF36F8F08BD980800200C00002008
:103980000100002008080020140000200200002090
:103990005008002003000020E00800200400002060
:1039A00004ED00E02DE9F843044690F84100984604
:1039B00016460D46202802D00220BDE8F88385B1C6
:1039C0007EB100206064212084F84100FEF7A4FA53
:1039D000A6848146E684A0682027B0F5805F02D0E7
:1039E00003E00120E9E7206910B12E4600250EE032
:1039F00000260CE08021204603F029FEA8B9C6B1BC
:103A000016F8010B21684860E08C401EE084E08CD1
:103A10004B464FF00002CDF800800028EAD14FF06D
:103A20004001204603F013FE40B184F841700320AA
:103A3000C3E735F8020BC0F30800E3E784F84170F0
:103A40000020BAE770B5044690F84100202801D064
:103A5000022070BD49B342B32162A284E2840020F7
:103A60006064212384F84130A56B114BEB63A56B97
:103A7000104B2B64A56B104BEB64A36B186525688A
:103A800013462A1DA06BFEF727F821686FF040004F
:103A900008602068143050E8001F41F0800140E8C1
:103AA0000012002AF5D1002070BD012070BD000079
:103AB00093730008D5730008497300087047704776
:103AC0002DE9F05F054600680E46074603F05BFFF0
:103AD000C6EB061140074FF007084FF0040905EB4D
:103AE000810401D5484633E03146286803F04BFF96
:103AF000C0054FF0080A08D507EB46114FF4807057
:103B0000C1F8080584F84DA028E03146286803F084
:103B10003AFF000705D507EB4611C1F808A50620B6
:103B20000CE03146286803F02EFF400509D507EB6D
:103B300046114FF48060C1F80805092084F84D0053
:103B40000CE03146286803F01EFF00060AD58020ED
:103B500007EB4611C1F8080584F84D803146286806
:103B600003F087FE3146286803F00DFF80052868C2
:103B7000314604D503F07DFE4FF4007059E103F0A7
:103B800002FFC0074FF0200B4FF0010A4FF0000872
:103B90004ED007EB4617C7F808B5E07E012807D1DD
:103BA00084F81B80D7F8040520F48030C7F804059A
:103BB000A87930B1206BD7F81015C1F31201401A63
:103BC000A06384F84DA0C4F844805246C7F808A505
:103BD00094F8260030B1022804D003280AD0012826
:103BE00008D013E03146286803F043FE1020C7F8E0
:103BF00008050BE0D7F8000540F00050C7F80005B5
:103C000084F84C2031462846FEF794F9A87901281B
:103C100007D1208DA16B0144491EB1FBF0F0C00714
:103C200004D014F83C0F80F001002070BDE8F09F34
:103C30003146286803F0A7FE80060CD507EB461135
:103C4000C1F808B5A07E0128F0D184F81BA003209C
:103C500084F84D00B4E03146286803F094FE8007F4
:103C60004FF0050B75D507EB46100221C0F808157B
:103C700094F84D20012A16D0062A19D0072A1CD004
:103C8000092A1AD0052A33D0032A63D0042A7DD00A
:103C9000082A7ED0022AC9D094F84C203146284602
:103CA000FEF748F9C2E784F84D1084F84CA0F3E71A
:103CB00084F84D1084F84CB0EEE784F84D10626C37
:103CC000521C6264022A10D9C4F84480A27E414684
:103CD000012A07D1E1762177D0F8041521F480314B
:103CE000C0F8041584F84C90D6E784F84C1022E014
:103CF00084F84D10E27E012ACED194F82620032AC2
:103D0000F3D1A26C521CA264022A11D9C4F84880D3
:103D100084F81B80616C032901D284F81CA0D0F8C0
:103D2000041521F48031C0F8041584F84C9002E0A9
:103D300084F84C10B0E794F8261009B10229ABD1F1
:103D4000D0F8001521F0804141F00041C0F8001585
:103D5000A2E724E084F84D10E27E012A9CD184F889
:103D60004C10D0F8041541F48031C0F80415D0F897
:103D70000C1541F04001C0F80C15D0F80C1521F0DD
:103D80002001C0F80C15D6E700E002E084F84D10E1
:103D9000ABE784F84D10606C401C6064A2E73146CC
:103DA000286803F0F0FD400610D507EB46114020CF
:103DB000C1F8080584F84DB0A07E08B9C4F8448065
:103DC00031462868BDE8F05F03F053BD31462868EE
:103DD00003F0D9FDC0067FF565AF94F826000328EF
:103DE00003D028B1022803D00FE0C4F8448006E0D5
:103DF000C4F84480A87910B1E07E012818D184F875
:103E00004D903146286803F034FDE07E01280FD143
:103E100007EB461084F81B80D0F8041521F480319C
:103E2000C0F80415D0F80C1541F02001C0F80C15AD
:103E3000102007EB4611C1F80805F7E62DE9F05F01
:103E4000054600680F46064603F09DFDC7EB0711C7
:103E500040074FF0040A05EB810405D506EB471136
:103E6000C1F808A5072089E03946286803F08BFDD2
:103E700080064FF000084FF001094FF0020B28D5E3
:103E800006EB47112020C1F80805607E03260128B3
:103E900009D184F8198084F84CB084F84D60394613
:103EA000286803F0E6FCA07E012810D1E07E0028FF
:103EB0000DD194F82600012801D084F81B9084F8D5
:103EC0004D603946286803F0D4FCC4F84480BDE84E
:103ED000F09F3946286803F056FD800506D506EBAD
:103EE00047114FF40070C1F8080549E039462868C9
:103EF00003F049FDC00720D0C4F844803946286843
:103F000003F041FD400606D506EB471184F81990F1
:103F10004020C1F80805E07E48B106EB471084F860
:103F20001B80D0F8041521F48031C0F8041506EB8D
:103F300047114846C1F8089520E03946286803F043
:103F400022FD40060ED5052084F84D00A07E08B95C
:103F500084F81990C4F844803946286803F089FC35
:103F6000402028E03946286803F00DFD00070DD5F4
:103F700006EB47110820C1F80805062084F84D001B
:103F800039462868BDE8F05F03F073BC39462868FD
:103F900003F0F9FCC00613D5C4F8448084F84DA0A2
:103FA000607E18B9207E08B984F8199039462868CF
:103FB00003F05FFC102006EB4711C1F8080586E707
:103FC0003946286803F0DFFC00061CD5A87970B1DB
:103FD000606C401C6064022811D9C4F844805246C9
:103FE00084F84CA039462846FDF7A4FF09E00720D5
:103FF00084F84D003946286803F03BFC01E084F862
:104000004CB08020D7E73946286803F0BCFC400557
:1040100009D5092084F84D003946286803F029FCA9
:104020004FF48060C7E73946286803F0ACFC80078E
:10403000C5D506EB47125846C2F808B594F84D109E
:10404000012917D003293AD004293ED005294CD0A4
:1040500006294DD0072901D00929B0D184F84D0097
:10406000616C491C6164022948D9C4F8448084F811
:104070004CA04DE084F84D0084F84C9094F8260054
:10408000022801D0032843D1A87928B994F83D002B
:1040900080F0010084F83D00A879012838D1606BD8
:1040A00010B3218D0844401EB0FBF1F0C0072FD0A3
:1040B00094F83D0080F0010084F83D0028E084F889
:1040C0004D00E17E012916D022E084F84D0084F8ED
:1040D0004C00E07E01281BD184F81B80D2F8040537
:1040E00020F48030C2F8040512E084F84D0002E0AC
:1040F00084F84D00052084F84C0009E084F84C0059
:10410000D2F8000520F0804040F00040C2F80005E1
:1041100094F84C2039462846FDF70CFFD7E67CB5CD
:1041200004680546D4F840040190D4F8400420F017
:104130002E0000900198800709D50198C00702D091
:104140002846FDF7EFFE009840F00200009001982D
:10415000000724D5009840F008000090019840071F
:104160001AD5687A022803D0E87901280CD00FE02C
:104170000198C0F341400228286803D0012103F0D0
:10418000E6FB05E00221FAE74EF66020C4F80404DD
:104190002846FDF778FF02E02846FDF770FF0198FA
:1041A0008006009802D540F020000090C4F840043A
:1041B0007CBD2DE9F041024600680646016AC1F364
:1041C000434301F00F07C1F30A15022B2ED1002D36
:1041D0002CD0C7EB071102EB8104E16A002925D03E
:1041E000A26B636B2A449A4222D82A4603F0D7FB7B
:1041F000E06A2844E062A06B2844A06306EB471005
:10420000D0F81015228DC1F3C941AA420ED1002960
:104210000CD0D0F8001521F0804141F00041C0F8E9
:10422000001514F83C0F80F001002070BDE8F0810B
:10423000042084F84C00F9E72DE9F0412DED0E8BB8
:10424000F0EE40AA05460E4617461AEE900AFCF715
:10425000B1F941EC1C0B9FED531BB0EE4C0AF0EE94
:104260006C0A04F0CFFAB0EE40BAF0EE60BA51EC4E
:104270001B0BFCF7B2F90AEE900AB7EE000AB0EE9B
:1042800040DAB7EE000AB0EE408A9FED480ACAEE67
:10429000800ABDEEE00A10EE100A062190FBF1F252
:1042A00001FB12049FED410ACAEE800A00EE104A9B
:1042B000B8EEC00A30EEC00AF0EE40EAB7EE000AEF
:1042C00030EE4D0A20EE080AB0EE40AAB7EE000A22
:1042D0000EEECD0A20EE080AF0EE40DAB7EE000A44
:1042E00070EE6E0AB7EE000A00EECD0A20EE080A64
:1042F000B0EE40EA062C2ED2DFE804F0030A1118D3
:104300001F26F0EE488AB0EE4E9AF0EE4A9A29E067
:10431000F0EE6D8AB0EE489AF0EE4A9A22E0F0EEA6
:104320004A8AB0EE489AF0EE4E9A1BE0F0EE4A8AC6
:10433000B0EE6D9AF0EE489A14E0F0EE4E8AB0EED0
:104340004A9AF0EE489A0DE0F0EE488AB0EE4A9AAA
:10435000F0EE6D9A06E0DFED168AF0EE689AB0EEA8
:10436000689A00BF00BF9FED130A28EE800ABCEEDA
:10437000C00A10EE100A28709FED0E0A29EE000AFE
:10438000BCEEC00A10EE100A30709FED0A0A29EE4A
:10439000800ABCEEC00A10EE100A3870BDEC0E8B1D
:1043A000BDE8F0810000000000807640000070420F
:1043B0000000000000007F430148008870470000B3
:1043C000F804002010B586B00446684600F02CF8CA
:1043D0009FED120A9DF81100D0B19DF91000B8B1FF
:1043E0000299A9B100EE101A9FED0D1A0028B8EE3F
:1043F000400AC1EE000A9FED0B0A20EE800A01DAA6
:10440000B1EE400A0CB184ED000A012006B010BDE7
:104410000CB184ED000A0020F8E700000000000065
:10442000002474498BFFBC3EF0B587B0044606F00B
:1044300017F9054672B6274B186800905868019026
:1044400098680290D8680390187C8DF81000587C0A
:104450008DF81100987C8DF81200D87C8DF813002F
:10446000187D8DF8140062B6012602990020C1B1B2
:104470000199B1B1029A184F921840EB0001D71B75
:1044800071F1000701D2144A0021DFF850C0002763
:10449000BCEB020C8F4100D2104A0199691A8A4282
:1044A00004D28DF811008DF8126003E08DF81160D0
:1044B0008DF8120072B69DF8110058749DF8120024
:1044C000987462B6182269462046FBF70CFF07B0C5
:1044D000F0BD000050E6002020A1070000093D00CB
:1044E00072B60C480C4AC11410611180506140151D
:1044F0000A4950800020086048608860C8600874DD
:10450000487401238B74C874087550609060D06043
:1045100062B6704700100240F804002050E6002008
:104520002DE9F04106F09CF8124C0546618860695F
:10453000FDF7E0FC0126002368B101200E494A681E
:1045400072B1AA1A40F2DC57BA4207D2C868401CBE
:10455000C860BDE8F0814FF0FF30EFE78A604E742D
:104560004D6008748B740A6810440860E068401C51
:10457000E060EEE7F804002050E6002002484168C1
:10458000491C416070470000F8040020FEE700006D
:10459000FEB54FF4FA760127164C0020CDE90076DF
:1045A0008DF808007F22656902ABD0212046A8471C
:1045B000CDE9007605460022D4F818C002ABD02120
:1045C0002046E0472844C5B29DF80800EA280ED1ED
:1045D0004020CDE900768DF808000622666902AB1E
:1045E000D0212046B047284410F0FF0000D0012021
:1045F000FEBD0000140100202DE9FE434FF4FA76C1
:104600000124614DCDE900464FF000088DF8088087
:104610007F226F6902ABD0212846B847CDE900461A
:1046200007460022D5F818C002ABD0212846E04743
:104630003844C7B29DF80800EA287DD18020CDE932
:1046400000468DF808000622D5F814C002ABD02130
:104650002846E0470744E96964208847CDE90046D9
:104660008DF8088003226E6902ABD0212846B0473E
:104670006426CDE900468DF8084007440622D5F8A7
:1046800014C002ABD0212846E04707442020CDE9E2
:1046900000468DF808007F22D5F814C002ABD02167
:1046A0002846E047CDE900464FF007098DF808900D
:1046B00007440022D5F814C002ABD0212846E047B9
:1046C00007443320CDE900468DF808000122D5F8D3
:1046D00014C002ABD0212846E047CDE900468DF852
:1046E000089007441122D5F814C002ABD021284607
:1046F000E04707443120CDE900468DF80800142238
:10470000D5F814C002ABD0212846E047CDE90046D9
:104710008DF8088007447F22D5F814C002ABD02161
:104720002846E04707440220CDE900460F228DF8D5
:10473000080002ABD02100E022E0D5F814C02846E2
:10474000E047CDE9004607440122D5F818C002AB86
:1047500018212846E0473844C7B29DF808000928C8
:104760000ED10820CDE900468DF8080031226C6991
:1047700002AB18212846A047384410F0FF0000D0B3
:104780000120BDE8FE830000140100202DE9F04166
:104790001D4616460C468046069F07F081F9E0B29A
:1047A00040F00101404607F056F93946404607F00F
:1047B000ACF910B100246F1E10E0404607F08CF9F0
:1047C0000320BDE8F081BC4201D0012100E00021BE
:1047D000404607F0F1F83055641CA4B2AC42F2D365
:1047E000404607F079F90020EBE72DE9F0411D463E
:1047F00016460C468046069F07F052F9E1B2404645
:1048000007F029F93946404607F07FF9A0B10024A6
:104810000AE0315D404607F01EF93946404607F090
:1048200074F948B1641CA4B2AC42F2D3404607F01C
:1048300053F90020BDE8F081404607F04DF9032010
:10484000F8E72DE9F0471E46DDE9085817460C4603
:10485000814607F025F9E1B2484607F0FCF84146E9
:10486000484607F052F9C8B1F9B2484607F0F3F8E4
:104870004146484607F049F980B1484607F010F92B
:10488000E0B240F00101484607F0E5F841464846ED
:1048900007F03BF910B100246F1E0DE00320BDE8C6
:1048A000F087BC4201D0012100E00021484607F01A
:1048B00083F83055641CA4B2AC42F2D3484607F0EA
:1048C0000BF90020EBE72DE9F0471D46DDE908680C
:1048D00014460F46814607F0E3F8F9B2484607F060
:1048E000BAF84146484607F010F9E8B1E1B2484647
:1048F00007F0B1F84146484607F007F9A0B1002497
:104900000AE0295D484607F0A6F84146484607F008
:10491000FCF848B1641CA4B2B442F2D3484607F094
:10492000DBF80020BDE8F0870320FBE788B008F043
:104930006FFD3D4E4FF47A77079002E0384607F05E
:1049400057FE306880470028F8D1DFF8E080002566
:10495000374C0121BA4688F8141004F11000DFF832
:10496000D4B0354F40F6B8390690326933493048F3
:1049700090471422059768460699FBF7B4FC94E823
:104980000F00D6F814C0E0474D4500D26D1C5545C8
:1049900044D194ED000A5846B0EEC00A10EE101A49
:1049A000814216DA94ED010AB0EEC00A10EE101A38
:1049B00081420EDA94ED020AB0EEC00A10EE101A2F
:1049C000594506DA98F81E10491C88F81E10B06880
:1049D000804797ED010A1A48B0EEC00A10EE101A8F
:1049E00081420EDA97ED000AB0EEC00A10EE101AFE
:1049F000814206DA98F81E10491C88F81E10F068EB
:104A0000804798F81E1002294FF0000104D088F862
:104A10001E104FF4487501E088F814100A2107A809
:104A200007F00CFEA1E700003401002094030020F1
:104A300018E50020CDCC4C3D60E500203CE5002091
:104A40000000A040F0B587B0044664270C20784DE4
:104A5000CDE900070E462D22D5F818C004ABD021B1
:104A60002846E047BDF81000112240BA00B200EE1F
:104A7000100A02ABB8EEC00A84ED030ABDF81200BA
:104A800040BA00B200EE100AB8EEC00A84ED040A83
:104A9000BDF8140040BA00B200EE100AB8EEC00A29
:104AA00084ED050ABDF8160040BA00B200EE100A07
:104AB000B8EEC00A84ED000ABDF8180040BA00B292
:104AC00000EE100AB8EEC00A84ED010ABDF81A0023
:104AD00040BA00B200EE100A08201821B8EEC00A51
:104AE00084ED020ACDE90007AF692846B8479DF872
:104AF0000F00C0F3C005BDB9BDF9080000EE100AF3
:104B0000B8EEC00A84ED060ABDF90A0000EE100AEC
:104B1000B8EEC00A84ED070ABDF90C0000EE100AD9
:104B2000B8EEC00A84ED080A424894ED000A242237
:104B3000D0ED000A214630EE600A84ED000A94EDC3
:104B4000010AD0ED010A30EE600A84ED010A94ED0D
:104B5000020AD0ED020A30EE600A84ED020A94EDFA
:104B6000030AD0ED030A30EE600A84ED030A94EDE7
:104B7000040AD0ED040A30EE600A84ED040A94EDD4
:104B8000050AD0ED050A304630EE600A84ED050ACC
:104B9000FBF7A9FB2748242221463030FBF7A3FB73
:104BA000D4ED030A9FED240A002D60EE800AC4EDC7
:104BB000030AD4ED040A60EE800AC4ED040AD4EDC1
:104BC000050A20EE800A84ED050AD4ED000A9FED67
:104BD0001B0A94ED021A60EE801AD4ED010A21EE50
:104BE000001A60EE800A9FED160A61EE801A60EEF0
:104BF000800A21EE000AC4ED001AC4ED010A84ED1A
:104C0000020A13D1D4ED060A9FED0E0A60EE800A67
:104C1000C4ED060AD4ED070A60EE800AC4ED070A67
:104C2000D4ED080A20EE800A84ED080A07B0F0BD32
:104C3000140100206CE50020CDCC1C3A00007A3C29
:104C400035FA8E3C0020193E7FB500211B480091AB
:104C500001910291184A0391026001244FF400323D
:104C60000461C0E90121047680F82010144AC0E9EB
:104C70000A210225C561C16080F830404461FCF71B
:104C8000AAF908B1FCF7FBF80C20CDE900040720D5
:104C9000029069460948FCF7F5F808B1FCF7EFF80F
:104CA0000D20CDE9000569460448FCF7EBF8002823
:104CB00001D0FCF7E4F87FBD00200140180500207A
:104CC0000100000F0F4810B50D4901600C21416033
:104CD00000214FF400328160C0E9031212014261E9
:104CE000017641768176C17601774177FCF70DFC3C
:104CF000002803D0BDE81040FCF7C1B810BD00008B
:104D000000640040C00500200F4810B50D49016047
:104D10000C21416000214FF400328160C0E9031290
:104D200012014261017641768176C1760177417741
:104D3000FCF7EBFB002803D0BDE81040FCF79FB860
:104D400010BD000000680040E80500201D4808B5BF
:104D5000016841F480010160016801F48001009163
:104D6000016841F4001101600068002200F40010A5
:104D7000009005210C20FDF739FA0C20FDF728FAE8
:104D8000002205210F20FDF731FA0F20FDF720FA50
:104D9000002205211120FDF729FA1120FDF718FA4C
:104DA000002205213820FDF721FA3820FDF710FAFE
:104DB000002205214620FDF719FABDE808404620EB
:104DC000FDF706BA303802402DE9FC4700220121E8
:104DD000322007F00CFF304C304A00216060304830
:104DE00005F0E4FF206104F108012820CDE900016D
:104DF0004FF48078002342462AA12D4808F032FA69
:104E0000012801D0FCF73BF800241726CDE9006407
:104E10004FF4007723463A4626A1294808F022FAA3
:104E2000012801D0FCF72BF81825CDE90054002308
:104E3000B9463A4623A1254808F014FA012801D0C2
:104E4000FCF71DF8CDE9005400234746424620A157
:104E5000234808F007FA012801D0FCF710F8CDE943
:104E6000005400234A461FA1224808F0FBF90128FC
:104E700001D0FCF704F8CDE9006400233A461EA1F6
:104E8000204808F0EFF9012803D0BDE8FC47FBF704
:104E9000F6BFBDE8FC8700001000002000D8000825
:104EA000856E0008536572766F5461736B00000065
:104EB000D56A000873686F775461736B0000000057
:104EC00029BF0008496D755461736B002D490008B6
:104ED00053657269616C436F6E5461736B000000BF
:104EE000396700087472616E736D69745F74617301
:104EF0006B0000005D6300085247425F7461736B92
:104F000000000000F15900082DE9F04F87B014218E
:104F10006846FBF701FA6D480024016841F0100172
:104F20000160016801F010010591016841F0040180
:104F30000160016801F004010591016841F0800100
:104F40000160016801F080010591016841F00101F3
:104F50000160016801F001010591016841F0020161
:104F60000160016801F002010591016841F008014A
:104F700001600068002200F00800059010215448EC
:104F8000FCF7C5FFDFF84C914FF460460022314634
:104F90004846FCF7BCFFDFF840A101223021504613
:104FA000FCF7B5FF012230214846FCF7B0FF4FF473
:104FB000C078012241464648FCF7A9FFDFF81CB142
:104FC000002210215846FCF7A2FF0122202158465A
:104FD000FCF79DFF0122C0214148FCF798FF1020FB
:104FE00000900125CDE90154694639480394FCF746
:104FF00089FE0096CDE90154694648460394FCF7C2
:1050000081FE3027032600970396CDE901546946B7
:105010005046FCF777FE00970396CDE901546946A8
:105020004846FCF76FFECDF800800396CDE90154A9
:1050300069462748FCF766FE28038DE8310069467B
:105040004846FCF75FFEC8208DE8310069465846A7
:10505000FCF758FE0097CDE9015469465846039481
:10506000FCF750FEC020CDE90005CDE902466946B7
:105070001B48FCF747FECDE90054694614480295E9
:10508000FCF740FEE8024FF444148DE83100694615
:105090000F48FCF737FE68028DE8310069460C487E
:1050A000FCF730FE002205211720FDF79FF817209E
:1050B000FDF78EF8002205212820FDF797F828201B
:1050C000FDF786F807B0BDE8F08F000030380240E9
:1050D000001002400008024000000240000C0240A4
:1050E0000004024010B588B01C216846FBF714F993
:1050F000154814490024016041F6BC11C0E90114AF
:10510000FE21C0E903148461FDF7D6FB08B1FBF76B
:10511000B6FE0D48FEF77FF808B1FBF7B0FE602041
:10512000CDE9000402940022694607480494FEF782
:105130000CF808B1FBF7A3FE0348FDF7ABFF08B07E
:1051400010BD000000480140C007002010B58AB023
:10515000002426480494059406940794089409941E
:105160000094019402944FF0804103940160532114
:10517000C0E901144FF6FF71C0E903148461FDF723
:105180009BFB08B1FBF77BFE4FF48050049004A911
:105190001648FDF721FD08B1FBF771FE1348FDF736
:1051A0002DFE08B1FBF76BFE089408A90F4809947F
:1051B000FDF73AFB08B1FBF762FE0120CDE90040A4
:1051C00002940022694609480394FDF785FD08B161
:1051D000FBF755FE042269460448FDF77DFD0028D3
:1051E00001D0FBF74CFE0AB010BD000010060020F5
:1051F00010B58AB000242E480494059406940794B0
:10520000089409940094019402942849039401603D
:105210005321C0E901144FF6FF71C0E90314846102
:10522000FDF74AFB08B1FBF72AFE4FF480500490CB
:1052300004A91F48FDF7D0FC08B1FBF720FE1C486D
:10524000FDF7DCFD08B1FBF71AFE089408A9184821
:105250000994FDF7E9FA08B1FBF711FE0120CDE949
:10526000004002940022694611480394FDF734FD82
:1052700008B1FBF704FE042269460D48FDF72CFD3A
:1052800008B1FBF7FCFD082269460948FDF724FD3B
:1052900008B1FBF7F4FD0C2269460548FDF71CFD3B
:1052A000002801D0FBF7EBFD0AB010BD0004004060
:1052B0005806002010B58AB000242E4804940594A6
:1052C0000694079408940994009401940294284940
:1052D000039401605321C0E9011442F20F71C0E947
:1052E00003148461FDF7E8FA08B1FBF7C8FD4FF439
:1052F0008050049004A91F48FDF76EFC08B1FBF72D
:10530000BEFD1C48FDF77AFD08B1FBF7B8FD089417
:1053100008A918480994FDF787FA08B1FBF7AFFD13
:105320000120CDE90040029400226946114803940F
:10533000FDF7D2FC08B1FBF7A2FD042269460D4837
:10534000FDF7CAFC08B1FBF79AFD08226946094837
:10535000FDF7C2FC08B1FBF792FD0C226946054837
:10536000FDF7BAFC002801D0FBF789FD0AB010BD9B
:1053700000080040A00600201CB500240F4800943F
:105380000D490194016040F24731C0E901144FF624
:10539000FF718461C160FDF78FFA08B1FBF76FFD03
:1053A0000094694605480194FDF73EFA002801D0B3
:1053B000FBF765FD1CBD000000100040E806002062
:1053C00010B596B000240F94109411941294139475
:1053D0001C2168461494FAF79FFF202107A8FAF7CA
:1053E0009BFF2C482A490160A721C0E9011440F61F
:1053F0004621C0E9031444618461FDF75DFA08B1F8
:10540000FBF73DFD4FF480500F900FA92148FDF7A9
:10541000E3FB08B1FBF733FD1E48FDF7FCFE08B1C6
:10542000FBF72DFD139413A91A481494FDF7FCF90A
:1054300008B1FBF724FD6020CDE900040294039439
:10544000049405940022694612480694FDF77DFEF7
:1054500008B1FBF714FD042269460E48FDF775FEFE
:1054600008B1FBF70CFD0794089409944FF4005021
:105470000A94CDE90B4007A906480E94FDF7AAF956
:1054800008B1FBF7FCFC0348FDF704FE16B010BDA5
:10549000000401403007002010B58CB000240794B0
:1054A000089409941C2168460A94FAF735FF1E48AF
:1054B0001C49016041F6BC11C0E90114FE21C0E99C
:1054C00003148461FDF7F8F908B1FBF7D8FC4FF439
:1054D0008050079007A91448FDF77EFB08B1FBF741
:1054E000CEFC1148FDF797FE08B1FBF7C8FC602021
:1054F000CDE900040294002269460B480494FDF7AC
:1055000024FE08B1FBF7BBFC042269460648FDF700
:105510001CFE08B1FBF7B3FC0348FDF7BBFD0CB064
:1055200010BD000000400140780700200C4810B575
:105530000A4901604FF4E1314160002181600C2291
:10554000C160C0E904128161C161FEF751F8002811
:1055500003D0BDE81040FBF792BC10BD004C0040EA
:10556000080800200C4810B50A4901604FF4E131E9
:105570004160002181600C22C160C0E90412816198
:10558000C161FEF735F8002803D0BDE81040FBF7F5
:1055900076BC10BD00100140500800200C4810B52A
:1055A0000A4901604FF461314160002181600C22A1
:1055B000C160C0E904128161C161FEF719F80028D9
:1055C00003D0BDE81040FBF75ABC10BD00440040BA
:1055D000980800200C4810B50A4901604FF4E131E9
:1055E0004160002181600C22C160C0E90412816128
:1055F000C161FDF7FDFF002803D0BDE81040FBF7B7
:105600003EBC10BD00480040E0080020FEE7FEE779
:1056100030B40021084B0A465FF0000003EBC004E1
:10562000401CC0B262548028F8D3491CC9B2082972
:10563000F2D330BC00F09CB8D8DF002010B57F2832
:1056400016D83F2914D80723A3EBD10301F0070193
:10565000C1F107040121A140064CDBB204EBC000FC
:10566000002AC25CC9B201D00A4300E08A43C25496
:1056700010BD0000D8DF002070B53C4D4FF4005441
:10568000002221462846FCF742FC6420FCF75CFA25
:10569000012221462846FCF73AFC0021AE2000F00A
:1056A00053F90021D52000F04FF90021502000F0DF
:1056B0004BF90021A82000F047F900213F2000F01D
:1056C00043F90021D32000F03FF90021084600F003
:1056D0003BF90021402000F037F900218D2000F037
:1056E00033F90021142000F02FF90021202000F0D0
:1056F0002BF90021022000F027F90021A12000F061
:1057000023F90021C02000F01FF90021DA2000F069
:105710001BF90021122000F017F90021812000F070
:1057200013F90021EF2000F00FF90021D92000F03B
:105730000BF90021F12000F007F90021DB2000F037
:1057400003F90021302000F0FFF80021A42000F030
:10575000FBF80021A62000F0F7F80021AF2000F0B0
:10576000F3F8BDE87040FFF753BF000000080240A7
:1057700070B5114E002400BF04F1B000C0B200218A
:1057800000F0E2F80021084600F0DEF800211020C9
:1057900000F0DAF85FF0000506EBC5000121005DBE
:1057A00000F0D2F86D1CEDB2802DF5D3641CE4B28C
:1057B000082CE1D370BD0000D8DF00202DE9FF5F89
:1057C000203A1F460C46894602F0FF0A0025DDF804
:1057D00038B032E00C2F09D01A4901EB0A104FF013
:1057E0000008465D300607D55A4609E016490AEB1F
:1057F0004A0001EB8000F2E7BBF1000F12D000225B
:1058000021460098FFF71AFF7006641C060EE4B2EA
:10581000A4EB0900B84207D100984C46401CC0B226
:10582000009008E00122EBE708F1010000F0FF081A
:10583000B8F1080FD6D36D1CEDB2BD42CAD3BDE896
:10584000FF9F0000B8DC000844D800082DE9FF4F96
:1058500081B00027DDF838901D46934682463C46CD
:105860004FF001084FEA59062BE0281B401E0A2280
:10587000C1B2012000E05043491EC9B2FBD2BBFBBC
:10588000F0F00A21B0FBF1F201FB120027B9691E0A
:105890008C4201DA48B101273030C2B206FB04A0C5
:1058A000C0B24B46CDF8008006E006FB04A0C0B2B3
:1058B0004B462022CDF800800299FFF77FFF641C41
:1058C000E4B2AC42D1D305B0BDE8F08F2DE9F84386
:1058D0001E46089F14008846054604D5504204B26F
:1058E00007A2284600E007A200F00EF80A35E8B249
:1058F0003346224641460097FFF7A8FFBDE8F883EC
:105900002D0000002B000000F8B516460D46044699
:10591000012714E07A2C02D900241035EDB23A2D7B
:1059200003D900242546FFF773FE009732780C2335
:1059300029462046FFF742FF0834E4B2761C30784F
:105940000028E7D1F8BD00002DE9F047DFF86090AE
:10595000054609B1012200E0002210214846FCF76B
:10596000D6FA144F00244FF480484FF4004600222A
:1059700031463846FCF7CBFA280601D5012200E073
:10598000002241463846FCF7C2FA01223146384629
:10599000FCF7BDFA6806641C050EE4B2082CE6D3D9
:1059A0004846BDE8F04701221021FCF7B0BA0000DC
:1059B00000100240000802400148FCF7BFBA000096
:1059C00068E6002010EE100AF6EE000A074960EEC5
:1059D000200AA1EB600000EE100AB7EE081A60EE94
:1059E000800A00EEC01A21EE000A7047DF59375FC7
:1059F00008B507F00DFD2C4C009020688047002270
:105A0000A3681146FF2098474FF47A75284606F0A0
:105A1000EFFD0022A368FF2110469847284606F0B4
:105A2000E7FDFF220021A36808469847284606F0B4
:105A3000DFFD1E4D00F0F4F9062830D2DFE800F05B
:105A400003141921262D2878022802D0012805D018
:105A500025E0002211462020E36803E00022E368ED
:105A60002021104698471AE0802200216420E36834
:105A7000F8E780220021E6694FF4FA636420B0471A
:105A80000DE000228021FF20E368EBE70748E36890
:105A9000401CC27881784078E4E760688047C8217C
:105AA000684606F0CBFDC5E76001002084030020B6
:105AB00010B5012007F090F810490860084600680A
:105AC00008B900BFFEE700200D49C87000210D484D
:105AD000FDF7D0FB04210B48FDF7CCFB00210A4861
